:020000040800F2
:10000000E808002045010008532300089F1F00084E
:100010005123000817090008092E000800000000FD
:10002000000000000000000000000000F7260008AB
:100030001909000800000000F5260008F92600084C
:100040005F0100085F0100085F0100085F01000810
:100050005F0100085F0100085F0100085F01000800
:100060005F0100085F0100085F0100085F010008F0
:100070005F0100085F0100085F0100085F010008E0
:100080005F0100085F0100085F0100085F010008D0
:100090005F0100085F0100085F0100085F010008C0
:1000A0005F0100085F0100085F0100085F010008B0
:1000B0005F0100085F0100085F0100085F010008A0
:1000C0005F0100085F0100085F0100085F01000890
:1000D0005F010008452C00085D2C00085F01000846
:1000E0005F0100085F0100085F0100085F01000870
:1000F0005F0100085F0100085F0100085F01000860
:100100005F0100085F0100085F0100085F0100084F
:100110005F0100085F0100085F0100085F0100083F
:100120005F0100085F0100085F0100085F0100082F
:10013000DFF80CD000F05AFB004800472D380008CB
:10014000E80800200648804706480047FEE7FEE72B
:10015000FEE7FEE7FEE7FEE7FEE7FEE7FEE7FEE777
:100160005B27000831010008202A04DB203A21FA2D
:1001700002F00021704721FA02F3D040C2F12002C0
:10018000914008431946704740EA01039B0703D09A
:1001900009E008C9121F08C0042AFAD203E011F8C6
:1001A000013B00F8013B521EF9D27047D2B201E088
:1001B00000F8012B491EFBD270470022F6E710B56C
:1001C00013460A4604461946FFF7F0FF204610BDC5
:1001D00030B505462A460B4612F8010B13F8014BC1
:1001E00008B1A042F8D01CB1002802D06D1CF1E784
:1001F000284630BD421C10F8011B0029FBD1801A93
:100200007047000070B50F4D00B92868002412E057
:100210000A4602E09E4203D0521C1378002BF9D10B
:10022000DAB2224305D02BB124B1002100F8011B22
:1002300004E00446401C0678002EE9D128602046E0
:1002400070BD00002C00002070B5064602F070FE64
:10025000046805460A220021304600F0EBF82C60C5
:1002600070BD2DE9FE4F81EA030404F0004421F043
:10027000004100944FF0000B23F0004350EA0104CA
:100280005ED052EA03045BD0C3F30A54C1F30A55AB
:100290002C44A4F2F3340194A0FB0254C1F31301E3
:1002A00041F48011C3F3130343F4801301FB0244B0
:1002B00000FB034E840A970A44EA815447EA8357B5
:1002C000A4FB076802958D0A05FB07854FEA932C6E
:1002D00004FB0C542705029D4FEA065847EA1637DF
:1002E000B5EB08056EEB070C870E920E47EA8117F7
:1002F00042EA8312A7FB0201B6EB0B0164EB000498
:100300002B0D43EA0C335E1844EB1C50DA46514681
:10031000E7FB0201C5F313044FEA0B3343EA14531E
:100320004FEA0432019C43EA0603A4F10C04029450
:10033000009CCDE900B400F0C4F803B0BDE8F08F34
:1003400000200146F9E70EB5C10F80EAE0700844CD
:10035000CA07002140F233438DE80E000A460B46DF
:1003600000F0AFF803B000BD70B5C1F30A5201F060
:1003700000450024C1F3130140F2FF3341F4801122
:100380009A4201DA002070BD40F233439A42A2F251
:10039000334203DC5242FFF7E7FE00E090402C437B
:1003A000F1D0404270BD30B50B46014600202022FE
:1003B000012409E021FA02F59D4205D303FA02F572
:1003C000491B04FA02F52844151EA2F10102F1DCD2
:1003D00030BD2DE9F05F0546002092469B468846D9
:1003E0000646814640241BE02846414647462246B1
:1003F000FFF7BAFE53465A46C01A914110D3114630
:100400001846224600F004FA2D1A67EB01084F4601
:1004100022460120002100F0FBF917EB00094E41B4
:10042000201EA4F10104DFDC484631462A4643463B
:10043000BDE8F09F2DE9F04791460F4680460446FF
:10044000002614F8015B2DB100F004FA0068405D4D
:10045000C007F6D12B2D02D02D2D18D0641E4A4690
:100460003946204600F0FAF927B13968A14201D196
:10047000C7F8008071054FF002040BD540420028F8
:1004800003DD02F055FD0460A007BDE8F08746F4E7
:100490008066E4E70028F8DA02F04AFD04606FF0B5
:1004A0000040F2E710B5141E73F1000408DA401C96
:1004B00041F1000192185B411A4301D120F0010083
:1004C00010BD2DE9F04D92469B4611B1B1FA81F273
:1004D00002E0B0FA80F22032904600F099F904462A
:1004E0000F4640EA0A0041EA0B0153465A460843C8
:1004F00013D0114653EA010019D0C8F1400250460A
:10050000FFF732FE05460E4650465946424600F079
:100510007FF9084305D0012004E020463946BDE8B4
:10052000F08D0020054346EAE0762C4337430A98D5
:100530006305E40AA0EB08000022FD0A44EA4754E0
:100540000A3002D500200146E9E70105101969418A
:10055000DDE9084500196941BDE8F04DA2E72DE944
:10056000FE4F804681EA0300C00F0C46009021F048
:10057000004123F00045B8EB0200A94105D24046F6
:10058000214690461C460B46024623F0004010438D
:1005900047D0270DC7F30A00C3F30A510290401A4F
:1005A000019040286BDAC3F3130040F4801B0098DD
:1005B000924620B10023D2EB030A63EB0B0B0198A8
:1005C0005946C0F14002504600F022F906460D4659
:1005D00050465946019A00F02AF910EB0800614193
:1005E000002487EA115284EAE7731A4340D0009A44
:1005F00062B3019A012A4FEA075215DC001B61EB36
:1006000002014FF0004202EA0752CDE90042001C0D
:1006100041F5801132462B46FFF753FF03B0BDE88A
:10062000F08F40462146F9E7001B61EB0201001CF8
:1006300041F5801300185B412018A2F5001747EB25
:10064000030140EAD570B6196D4111E06D084FEA1B
:10065000360645EAC0754FEA0752001B61EB0201FE
:10066000001C41F5801149084FEA30000019514142
:1006700032462B4603B0BDE8F04FFFF713BF00989A
:10068000012240000023D0EB020263EBE0730098EC
:1006900021464FEAE074B8EB000061EB0401E9E7A2
:1006A00083F000435BE781F0004158E72DE9F04D0E
:1006B00081EA030404F0004B21F0004514464FF09A
:1006C000000A23F0004150EA050220D054EA01025A
:1006D0001DD0C5F30A570246C5F31303C1F3130037
:1006E000C1F30A5640F4801543F48013A7EB0608C3
:1006F000101BD64608F2FD3873EB050002D308F153
:10070000010801E092185B41B8F1000F03DA002004
:100710000146BDE8F08D00204FF480110646844666
:100720000EE0171B73EB050705D3121B63EB0503E4
:1007300006434CEA010C49084FEA300092185B412D
:1007400050EA0107EDD152EA030012D082EA040018
:1007500083EA0501084305D0101BAB4106D20122F4
:10076000002306E000224FF0004302E06FF0010298
:1007700053101AEB06004CEB085110EB0A0041EB4A
:100780000B01BDE8F04DFFF78DBEC1F30A52C1F376
:10079000130140F2FF3341F480119A4202DA002043
:1007A0000146704740F233439A42A2F2334202DCE0
:1007B0005242FFF7D9BC00F02BB8000030B5041E40
:1007C00071F1000404DB4FF00044404264EB01018E
:1007D000141E73F1000405DB1C464FF00043524227
:1007E00063EB0403994208BF904230BD064C074DAD
:1007F00006E0E06840F0010394E8070098471034F1
:10080000AC42F6D3FFF798FC7C4200089C420008FB
:10081000202A04DB203A00FA02F1002070479140C0
:10082000C2F1200320FA03F3194390407047202AB5
:1008300006DBCB17203A41FA02F043EAE07306E008
:1008400041FA02F3D040C2F1200291400843194618
:100850007047000000487047784200082DE9F05FBB
:1008600082460078002715468B460AF10104B946F6
:10087000302801D09DB113E014F8010B012778282E
:1008800003D0582801D045B10AE00DB1102D07D191
:100890000027102514F8010B02E0082500E00A25C6
:1008A0000026B0460EE005FB080005FB06F1012717
:1008B00001EB10461FFA80F8B6F5803F00D3B94629
:1008C00014F8010B294600F018F80028EBDABBF108
:1008D000000F05D00FB1641E00E05446CBF8004075
:1008E000B9F1000F06D002F023FB02210160C81EFF
:1008F000BDE8F09F48EA0640FAE73A2800D23038CF
:1009000020F02002412A01D3A2F13700884201D30E
:100910004FF0FF307047FEE77047000070B50C469F
:100920000546C8212248FFF748FC22A202210020E8
:1009300001F0ABFE23A20221002001F0A6FE1DA2C1
:100940000421002001F0A1FE22A20421002001F0D8
:100950009CFE18A20621002001F097FE23462A469D
:1009600020A1134802F0AEFA41F2883000F05EFA9E
:1009700040F6B83222A10E4800F0B4F808B10520C4
:1009800070BD642220A121A000F0ACF808B10120C4
:1009900070BD642221A122A000F0A4F808B10420B7
:1009A00070BD2249002008802149087070BD0000F8
:1009B000380000202020202020202020202020205F
:1009C00020202000434F4E4E45205345525645525D
:1009D000202E2E004F6E654E455453747564696F1A
:1009E000494F540041542B43495053544152543DB4
:1009F00022544350222C222573222C257300000000
:100A0000434F4E4E454354004F4B000041542B433F
:100A100049504D4F44453D31000000003E0000006C
:100A200041542B43495053454E44000018000020C8
:100A300004000020F0B5154C0746C1B000200D465B
:100A400020601646C8211248FFF7B7FB2B463246F6
:100A500010A10F4802F036FA6B4600220C493846C6
:100A600001F018FB82B2206064236946104801F04F
:100A700048FA4FF480710F48FFF79FFB4FF49670D0
:100A800000F0D4F941B00120F0BD000000000020CA
:100A9000380000207B226C69676874223A25732C29
:100AA00022696E667261726564223A25737D000068
:100AB0005804002058010020084910B50988002476
:100AC000012909D101460648FFF782FB04464FF48D
:100AD00080710348FFF771FB204610BD180000200D
:100AE000580100202DE9F04788468146144600272A
:100AF0004FF480711648FFF760FB164D00264946FB
:100B00002E8015A002F0CEF9494615A002F0B2F8E9
:100B1000B8F1000F17D08CB915E00A2000F086F963
:100B2000288801280AD10A4910A002F0A3F84046FB
:100B3000FFF7C2FF08B12CB105E02E80641E24042B
:100B4000240CEAD101272E803846BDE8F08700004A
:100B5000580100201800002025730D0A0000000035
:100B600041542D2D3E25730D0A000000526563652A
:100B70007669652D2D3E25730D0A000070B50C4673
:100B8000054601212BA2084601F07FFD01212DA27F
:100B9000084601F07AFDC8222EA12FA0FFF7A2FF80
:100BA00038B1C8222BA12CA0FFF79CFF08B1FF2071
:100BB00070BD01211FA2084601F067FD012128A296
:100BC000084601F062FDC82222A129A0FFF78AFF92
:100BD000012118A2084601F058FD012127A208466C
:100BE00001F053FDC8212948FFF7E7FA11A20421BB
:100BF000002001F04AFD2A460421002001F045FDB5
:100C00000CA20621002001F040FD22460621002012
:100C100001F03BFD23462A461DA11C4802F052F973
:100C20004FF47A721FA11948FFF75CFF0028BFD06C
:100C3000FD2070BD202020202020202020202020EA
:100C4000202020005749464920434F4E4E454354EB
:100C5000202E2E004F4B0000415445300000000074
:100C600057494649205345544D4F4445202E2E00A8
:100C700041542B43574D4F44453D33005749464956
:100C80002053455453534944202E2E003800002051
:100C900041542B43574A41503D222573222C222593
:100CA000732200005749464920474F5420495000BD
:100CB00072B6FEE710B590F821100022022905D087
:100CC0000421816380F82020012010BD01680B6899
:100CD00023F00E030B6001680B6823F001030B6027
:100CE00090F84030C46B012101FA03F3636080F88F
:100CF000211080F82020104610BD00002DE9F05F83
:100D000090F821100024022903D0042181630124DA
:100D100085E001680A6822F00E020A6001680A682C
:100D200022F001020A603F4E3E4FB215DFF8F4C0D8
:100D3000DFF8F090DFF8ECA0DFF8E8B0DFF8E4E0EF
:100D40000168783F13011502ACF1640CA9F1500958
:100D5000AAF13C0AABF1280BAEF1140E4FF4801847
:100D6000B14227D9B9420ED0614512D049451DD0B4
:100D7000514518D0594518D0714501D1424615E06A
:100D8000294EB14201D1012210E0274E1436B14262
:100D900001D110220AE0244E2836B14206D0224A60
:100DA0003C32914201D11A4600E02A461E49091FF1
:100DB0000A602BE0B94213D0614517D0494522D0D3
:100DC00051451DD059451DD0714501D142461AE00B
:100DD000B14202D14FF0807215E0134EB14201D101
:100DE000012210E0104E1436B14201D110220AE067
:100DF0000D4E2836B14206D00B4A3C32914201D109
:100E00001A4600E02A46074980394A60012180F8E5
:100E10002110002180F82010416B01B18847204645
:100E2000BDE8F09F800002400804024070B504460F
:100E300000F010F90546601C02D004480078044414
:100E400000F008F9401BA042FAD370BD1C0000203E
:100E50002DE9F84FDFF8C8910024A9F1040B2346CF
:100E60000F2709F1040AABF1040ED1E00125A540DA
:100E700006EA0502AA4276D1DFF8A8C14E68A6EBC1
:100E80000C0866452BD00DDC032E34D005DC36B3C0
:100E9000012E19D0022E2FD11BE0112E16D0122EAA
:100EA0002AD119E0B8F5881F19D006DCB8F5803FC3
:100EB00015D0B8F5801F1FD111E0B8F5001F0ED076
:100EC000B8F5041F18D10AE0CB6815E0CB681B1DEC
:100ED00012E0CB6808330FE0CB680C330CE08B6872
:100EE0002BB1012B4FF0080303D0456104E004232C
:100EF00002E0056100E00023FF2A01D8064601E078
:100F000000F104064FEA840501D9A5F12005D6F8C1
:100F1000008007FA05FC28EA0C0803FA05F548EA00
:100F20000508C6F800804D68ED0070D53E4DAE69ED
:100F300046F00106AE61AD6924F0030605F0010537
:100F400000953A4D06EB050CDCF80850A607360F65
:100F500007FA06F825EA0805DFF8D480404503D1F2
:100F60004FF0000825E052E0DFF8C880404502D18C
:100F70004FF001081DE0DFF8C080404502D14FF07E
:100F8000020816E0DFF8B480404502D14FF00308B4
:100F90000FE0DFF8AC80404502D14FF0040808E0D4
:100FA000DFF8A080404502D14FF0050801E04FF086
:100FB000060808FA06F848EA0508CCF808804D68E3
:100FC000D9F80060ED024D4601D5164300E0964386
:100FD0002E604D68DAF80060AD02554601D5164323
:100FE00000E096432E604D68DBF80060AD035D467F
:100FF00001D5164300E096432E604D68DEF8006090
:10100000ED03754601D5164300E096432E60641C3F
:101010000A681646E2407FF429AFBDE8F88F000069
:1010200008040140000011100010024000000140BF
:1010300000080140000C0140001001400014014074
:1010400000180140001C01400AB101617047090409
:10105000FBE7000001488068704700001C0000208A
:101060000248816802781144816070471C000020AA
:10107000074810B5016841F010010160032000F03D
:1010800075F80F2000F006F800F024F8002010BDDD
:101090000020024070B50D4D04464FF47A71287857
:1010A000B1FBF0F00A490968B1FBF0F000F0DCFA9E
:1010B00048B9102C07D200222146501E00F036F805
:1010C00000206C6070BD012070BD00001C0000207D
:1010D000280000200C4808B5816941F001018161B8
:1010E000816901F001010091C16941F08051C16144
:1010F000C06900F0805000900448416821F0E06130
:1011000041F00071416008BD001002400000014044
:10111000002809DB00F01F020121914040098000F6
:1011200000F1E020C0F8001170470000F0B40E4B51
:101130001B680C46C3F30223C3F10705042D00D935
:101140000425191D072901D2002300E0DB1E01261A
:1011500006FA05F1491E214099409E40761E164030
:101160003143F0BC01F0D4BE0CED00E0064900F0C4
:10117000070208684FF6FF03184040EA0220034ABE
:1011800010430860704700000CED00E00000FA0515
:101190002DE9F0470F46050061D0434E306800F05E
:1011A0000700B84209D2306820F0070038433060A9
:1011B000306800F00700B84251D128683B4C8107E5
:1011C00012D5400703D5606840F4E060606028787D
:1011D000000703D5606840F4605060606068A968EB
:1011E00020F0F000084360602878C00728D06868C5
:1011F000012810D02168022810D0890700292EDA92
:10120000616821F0030101436160FFF723FF80461D
:1012100041F288390DE021688903EFE78901EDE7A4
:10122000FFF718FFA0EB0801494502D90320BDE8EC
:10123000F0876068696800F00C00B0EB810FEFD1B7
:10124000306800F00700B8420BD9306820F0070082
:1012500038433060306800F00700B84201D0012008
:10126000E5E72878400705D56068E96820F4E06084
:10127000084360602878000706D56068296920F473
:10128000605040EAC100606000F038F86168084AC8
:10129000C1F30311515CC840064908600648006864
:1012A000FFF7F8FE0020C2E70020024000100240D5
:1012B000D6410008280000202000002004480549ED
:1012C00000684968044AC1F30221515CC840704774
:1012D0002800002000100240E641000804480549AB
:1012E00000684968044AC1F3C221515CC840704794
:1012F0002800002000100240E64100080E4A516814
:101300000E4801F00C03042B11D0082B0FD10C4810
:10131000C1F38343C903C05C0AD55168084AC1F3CD
:101320004041921E515C054A5043B0FBF1F07047BA
:1013300004494843704700000010024000127A0040
:10134000C641000800093D002DE9F84F040070D0A7
:101350002078C04DC00749D06868C0F381000128DB
:1013600007D06868C0F38100022809D16868C0030B
:1013700006D52868800339D560680028E7D035E0B5
:101380006068B0F5803F0BD010B1B0F5A02F11D040
:10139000286820F480302860286820F4802002E04B
:1013A000286840F480302860606890B1FFF752FEF2
:1013B00006460AE0286840F480202860F0E700BF75
:1013C000FFF748FE801B642873D828688003F7D590
:1013D0000CE0FFF73FFE064605E000BFFFF73AFED0
:1013E000801B6428F0D828688003F7D420789A4EB0
:1013F00080074FF001094FF0000839D5686810F0F8
:101400000C0F07D06868C0F38100022809D1686812
:10141000C00306D42868800714D52069012808D1A4
:1014200010E02069B0B1C6F80090FFF713FE074640
:1014300005E00AE1FFF70EFEC01B0228C4D82868A9
:101440008007F7D52868616920F0F80040EAC100FC
:1014500028600DE0C6F80080FFF7FCFD074604E0B9
:10146000FFF7F8FDC01B022823D828688007F7D4AF
:10147000207800072CD57948A169D9B1C0F800902F
:10148000FFF7E8FD074604E0FFF7E4FDC01B022874
:101490000FD8686A8007F7D571484FF4FA51006891
:1014A000B0FBF1F0009000BF0098411E0091FAD20D
:1014B0000EE080E0C0F80080FFF7CCFD074604E0B6
:1014C000FFF7C8FDC01B022875D8686A8007F7D4EB
:1014D0002078400760D5E8690027C00008D4E86993
:1014E00040F08050E861E869012700F080500090EA
:1014F0005C480168C90513D40168834641F48071D2
:101500000160FFF7A7FD824606E000BFFFF7A2FDDE
:10151000A0EB0A0064284ED8DBF80000C005F5D522
:10152000E06801280AD008B1052813D0286A20F005
:1015300001002862286A20F0040002E0286A40F0D6
:1015400001002862E06841F2883B98B1FFF782FD14
:1015500082460BE0286A40F004002862EEE700BFF4
:10156000FFF778FDA0EB0A0159455AD8286A800791
:10157000F6D50CE0FFF76EFD824605E0FFF76AFD49
:10158000A0EB0A0159454CD8286A8007F6D41FB150
:10159000E86920F08050E861E06988B36968C1F3C8
:1015A0008101022944D00228C6F8608004D0FFF7E8
:1015B00051FD044638E034E0FFF74CFD074604E0F7
:1015C000FFF748FDC01B02282BD828688001F7D4FC
:1015D000206AB0F5803F05D16868A16820F400302A
:1015E00008436860D4E908010843696821F474116C
:1015F00008436860C6F86090FFF72CFD044606E0DB
:1016000025E000BFFFF726FD001B022809D8286847
:101610008001F7D51BE000BFFFF71CFD001B02286F
:1016200002D90320BDE8F88F28688001F4D40EE0C9
:101630000128F7D06868226A00F48031914204D111
:10164000616A00F47010884201D00120EAE70020AE
:10165000E8E70000001002400000424280044242DD
:10166000280000200070004010B5401EB0F1807FBF
:1016700001D3012010BD4FF0E02460610F216017FD
:1016800001F046FC0020A06107202061002010BD71
:1016900070B590F83C20012A2CD0012480F83C4001
:1016A000022280F83D2003685A689D6822F0700687
:1016B0000A6832435A60104B02689A420ED00F4BB0
:1016C0009A420BD0B2F1804F08D00D4B9A4205D010
:1016D0000C4B9A4202D00C4B9A4204D1496825F037
:1016E00080031943916080F83D40002180F83C1050
:1016F000084670BD022070BD002C0140003401403E
:101700000004004000080040000C004010B5040038
:1017100003D094F83D0010B107E0012010BD002077
:1017200084F83C00204600F01FF8022084F83D00B9
:10173000211D206801F012F8012084F8460084F889
:101740003E0084F83F0084F8400084F8410084F8AB
:10175000420084F8430084F8440084F8450084F88B
:101760003D00002010BD000008B500680649884211
:1017700008D10648C16941F00401C161C06900F0A7
:101780000400009008BD0000000800400010024066
:1017900070B5044690F83C000025012817D00126BA
:1017A00084F83C60022084F83D002068826822F0C2
:1017B000770222F47F4282600868502838D00DDC1E
:1017C00020284FD005DC90B3102811D14AE0022028
:1017D00070BD302846D040280AD13BE060282FD089
:1017E00070280DD0B0F5805F03D0B0F5005F12D047
:1017F000012584F83D60002084F83C00284670BD37
:10180000CB68D1E90121206800F0FBFF20688168E6
:1018100041F0770109E0CB68D1E90121206800F0AF
:10182000F0FF2068816841F480418160E1E719E0C0
:10183000CA684968206801F0B9F85021206806E0BC
:10184000CA684968206801F0C2F86021206800F089
:10185000E2FFCEE7CA684968206801F0A7F8402196
:101860002068F4E7226801461046F0E700B585B02D
:101870000021009101910291039100680F49884273
:1018800019D10F48816941F0200181618069694661
:1018900000F0200004904FF480500090022001904E
:1018A00003900848FFF7D4FA0748416841F0E06127
:1018B00041F48051416005B000BD000000080040C7
:1018C00000100240001401400000014070B50446C1
:1018D00090F83C0000260D4601280FD0012084F826
:1018E0003C006AB1042A1DD0082A2FD00C2A3FD010
:1018F0000126002084F83C00304670BD022070BDF7
:10190000206800F091FF2068816941F00801816141
:101910002068816921F004018161206881692A6958
:10192000114311E0206800F0AFFF2068816941F4A5
:10193000006181612068816921F480618161206892
:1019400081692A6941EA02218161D2E7206800F0B9
:10195000D1FF2068C16941F00801C1612068C169F7
:1019600021F00401C1612068C1692A69114311E0B5
:10197000206800F0F3FF2068C16941F40061C16193
:101980002068C16921F48061C1612068C1692A6948
:1019900041EA0221C161ACE710B5040003D094F81C
:1019A0003D0010B107E0012010BD002084F83C008C
:1019B000204600F01EF8022084F83D00211D20681A
:1019C00000F0CCFE012084F8460084F83E0084F844
:1019D0003F0084F8400084F8410084F8420084F815
:1019E000430084F8440084F8450084F83D0000205A
:1019F00010BD704710B50446022249B104290ED02B
:101A0000082913D094F84100012816D0012010BDF8
:101A100094F83E000128F9D184F83E200FE094F8B4
:101A20003F000128F2D184F83F2008E094F84000FC
:101A30000128EBD184F8402001E084F84120012204
:101A4000206800F0D1FE13492068134A884201D073
:101A5000904203D1436C43F40043436420688842BE
:101A60000DD090420BD0B0F1804F08D00B49884286
:101A700005D00B49884202D00A49884204D18168C6
:101A800001F00701062903D0016841F0010101605E
:101A9000002010BD002C0140003401400004004033
:101AA00000080040000C004070477047F8B501681E
:101AB00004460868CA684B6910F00F0F4FF0000524
:101AC00059D003F0010602F49077374365D0C1077F
:101AD00005D0D10503D5616C41F001016164410776
:101AE00005D5D90703D0616C41F00201616481071B
:101AF00005D5D90703D0616C41F004016164010789
:101B000007D502F02001314303D0616C41F0080198
:101B10006164616C00293AD0800604D5900602D534
:101B2000204600F095FF20684069616CC0F380108A
:101B3000090700D460B3204600F063FF20684069C5
:101B4000400621D52068143050E8001F21F04001E4
:101B500040E80012002AF5D1E06BA8B16D4941635D
:101B6000E06BFFF7CBF8002811D0E06B416B01B0C0
:101B7000BDE8F040084783060FD593060DD52046F3
:101B8000BDE8F84000F064BF2046FFF78EFFF8BDC7
:101B90002046FFF78AFF6564F8BD266B2023012EDF
:101BA0007CD1C6067AD5D60678D5086848680090F4
:101BB00048694FF00206400640D5E16B086840686E
:101BC0000004000CE8D0A28D8242E5D9E085886946
:101BD00020282DD020680C3050E8001F21F480719F
:101BE00040E80012002AF5D12068143050E8001FA8
:101BF00021F0010140E80012002AF5D120681430DC
:101C000050E8001F21F0400140E80012002AF5D101
:101C100084F84230256320680C3050E8001F21F022
:101C2000100140E80012002AF5D1E06BFFF742F8FE
:101C30006663A08DE18D401A81B22AE0A08DE18D0E
:101C4000401A81B2E08D0028A6D00029A4D02268D5
:101C50000C3252E8000F20F4907042E80007002F89
:101C6000F5D12068143050E8002F22F0010240E83E
:101C70000027002FF5D184F84230256320680C300E
:101C800050E8002F22F0100240E80023002BF5D18D
:101C900066632046FFF708FFF8BDFFE705062BD572
:101CA000150629D594F841002128F5D1A068B0F592
:101CB000805F01D12069B0B1206A411C2162216896
:101CC00000784860E08C401E0004000CE084E3D102
:101CD0002068C16821F08001C1602068C16841F0BE
:101CE0004001C160D8E7206A0088C0F3080048605E
:101CF000206A801C2062E5E74006CDD55006CBD592
:101D0000CA68204622F04002CA6084F8413000F0E0
:101D100045F9C1E7F329000870B5040004D094F830
:101D20004100002510B106E0012070BD84F840504C
:101D3000204600F023F8242084F841002068C16880
:101D400021F40051C160204600F0E4FE20680169E2
:101D500021F4904101612068416921F02A0141612B
:101D60002068C16841F40051C1606564202084F896
:101D7000410084F842006563002070BD70B586B0F4
:101D8000002400940194029403942E4E03682E497B
:101D9000022003222D4DB34226D18B6943F48043A8
:101DA0008B618B6903F4804304938B6943F00403D4
:101DB0008B618969039201F0040104910102CDE96C
:101DC000001069462846FFF743F82815CDE90004BE
:101DD000694628460294FFF73BF800221146252069
:101DE000FFF7A4F9252028E0194EB34227D1CB698B
:101DF00043F40033CB61CB6903F4003304938B6964
:101E000043F004038B618969039201F0040104919A
:101E10000421CDE9001069462846FFF719F808208B
:101E2000CDE90004694628460294FFF711F8002224
:101E300011462620FFF77AF92620FFF769F906B048
:101E400070BD000000380140001002400008014051
:101E5000004400402DE9F843044690F842009946BA
:101E600016460D46202802D00220BDE8F883ADB109
:101E7000A6B100206064222184F842102063FFF79D
:101E8000E9F8A6858046E685A0684FF48057B842F9
:101E900001D1206920B12E46002526E00120E4E78B
:101EA000002622E04346002220212046CDF8009063
:101EB00000F08CFE08B10320D7E726B1A068B84235
:101EC0001BD038B108E020684068C0F3080025F84E
:101ED000020B07E0206980B12068406800F07F00B5
:101EE00006F8010BE08D401EE085E08D0028D9D179
:101EF000202084F842000020B7E720684068EFE720
:101F000070472DE9F843044690F841001F461646F5
:101F10000D46202802D00220BDE8F8837DB176B1BD
:101F200000206064212084F84100FFF793F8A68424
:101F30008046E684A068B0F5805F02D003E001200F
:101F4000EAE7206910B12E4600250EE000260CE0DD
:101F50008021204600F03AFEA0B9AEB116F8010B80
:101F600021684860E08C401EE084E08C43464FF0DE
:101F7000000200970028EBD14FF04001204600F00E
:101F800025FE30B10320C7E735F8020BC0F3080087
:101F9000E6E7202084F841000020BDE77047FEE717
:101FA000FFB5074687B01C4616461046FEF722F9D5
:101FB00003903846FEF71EF902900898FEF71AF9CA
:101FC0000190029903980125401801998022401838
:101FD000102121701030C117490E0918CB09DB01FF
:101FE000C01AC3B2C811002800DD134363556D1C2D
:101FF0000028F0DC0020605504216D1C61554D2245
:102000006D1C625551226D1C625554226D1C625527
:102010006D1C62556D1C6155C2216D1C61556D1C96
:1020200060553C206D1C60556846407B6D1C6055BA
:102030006846007B6D1C60556D1C60193146039A23
:10204000FEF7A2F803980299281800290EDD6946C8
:10205000497A21546946401C097A2154451C60196B
:102060003946029AFEF790F802982818019900293B
:102070000EDD6946497921546946401C097921548D
:10208000451C6019019A0899FEF77EF801982818F6
:102090000BB0F0BDFEB51D460E460746FEF7AAF88A
:1020A00000903046FEF7A6F8019031461DA000F0E2
:1020B000E1FD019900980124401830218022297007
:1020C000401DC117490E0918CB09DB01C01AC3B264
:1020D000C811002800DD13432B55641C0028F0DCD8
:1020E00068464078285568460078641C2855641C6A
:1020F00028193946009AFEF747F800983146241807
:102100000320285568464079641C285568460079A4
:10211000641C2855641C2819019AFEF735F80198AB
:102120002018FEBD0D0A637374782E74616F6261AE
:102130006F2E636F6D3A25730D0A0000FFB581B0F5
:102140001D4616460F460198FEF754F80090002EE3
:1021500001D0012000E0002000994018001D002E51
:1021600001D0822100E0A221012429708022C11720
:10217000490E0918CB09DB01C01AC3B2C8110028E7
:1021800000DD13432B55641C0028F0DC002028558B
:102190000120641C285568464078641C2855684610
:1021A0000078641C2855641C2819009A0199FDF7D1
:1021B000EBFF00982018002E01D02F54401C05B0D2
:1021C000F0BD000030B585B000241C480094019497
:1021D00002940394816941F010018161816901F0E9
:1021E00010010491816941F004018161816901F06C
:1021F00004010491816941F020018161816901F04C
:1022000020010491816941F48071816180690C4DE4
:1022100000F4807004900122CC212846FEF714FFC0
:10222000CC2000900120CDE90104022003906946F2
:102230002846FEF70DFE05B030BD0000001002403C
:102240000020014010B58EB0002407940894099432
:102250000A940B941C2168460C94FDF7AEFF1F48AE
:102260001D4901604821C0E901144FF47A71C0E9A9
:10227000031480218161FFF749FA08B1FEF718FDC8
:102280004FF48050079007A91448FFF781FA08B16E
:10229000FEF70EFD1148FFF77FFB08B1FEF708FDC2
:1022A0000B940BA90D480C94FFF7F2F908B1FEF757
:1022B000FFFC6020CDE90004029400226946074833
:1022C0000494FFF703FB08B1FEF7F2FC0348FFF7A5
:1022D000CDFA0EB010BD0000000800400C01002037
:1022E0000C4810B50A4901604FF4E131416000210A
:1022F00081600C22C160C0E904128161C161FFF7F5
:102300000BFD002803D0BDE81040FEF7D1BC10BD86
:1023100000380140580400200C4810B50A490160FB
:102320004FF416514160002181600C22C160C0E968
:1023300004128161C161FFF7EFFC002803D0BDE802
:102340001040FEF7B5BC10BD00440040A0040020C2
:10235000FEE7FEE770B500240021204600F003F9F7
:102360000025002000F0B5F96D1CEDB2802DF8D3EA
:10237000641CE4B2082CEFD370BD000070B586B0C9
:10238000002415480094019402940394816941F05B
:10239000080181618069114E00F008004FF440751A
:1023A0000490012229463046FEF74EFE012000959A
:1023B000CDE901040220039069463046FEF748FD4E
:1023C000012211023046FEF73FFE01225102304643
:1023D000FEF73AFE06B070BD00100240000C01404E
:1023E0002DE9F047164D002407464FF080084FF4C2
:1023F0000079AE1528FA04F0384201D0012200E03D
:10240000002249462846FEF71FFE01223146284693
:10241000FEF71AFE002231462846FEF715FE641C20
:10242000E4B2082CE6D3012231462846FEF70CFE22
:1024300031462846BDE8F0470022FEF705BE000001
:10244000000C014070B501220B4D54022146284674
:10245000FEF7FAFD0122160231462846FEF7F4FD8A
:10246000002221462846FEF7EFFD31462846BDE80A
:1024700070400022FEF7E8BD000C014070B50A4D27
:102480004FF40074002221462846FEF7DDFD0122AC
:1024900011022846FEF7D8FD21462846BDE87040C7
:1024A0000122FEF7D1BD0000000C014010B5002054
:1024B0004FF47A720021491C9142FCD3401C904297
:1024C000F8D3FFF75BFFAE2000F0F2F8D52000F064
:1024D000EFF8802000F0ECF8A82000F0E9F83F20A9
:1024E00000F0E6F8D32000F0E3F8002000F0E0F878
:1024F000402000F0DDF8A12000F0DAF8C82000F05C
:10250000D7F8DA2000F0D4F8122000F0D1F88120BA
:1025100000F0CEF8CF2000F0CBF8D92000F0C8F8BA
:10252000F12000F0C5F8DB2000F0C2F8302000F008
:10253000BFF8A42000F0BCF8A62000F0B9F88D2068
:1025400000F0B6F8142000F0B3F8AF2000F0B0F8B7
:10255000BDE81040FFF7FEBE0246012000E05043F8
:10256000491EFCD2704710B50C4640F0B00000F098
:102570009FF8102040EA141000F09AF804F00F00C1
:10258000BDE8104000F094B82DE9F0410746CE00B8
:102590004000083E801E15464FF0FF38F1B2C0B231
:1025A000FFF7E1FF1148002400EB05152819A0F5FD
:1025B000805090F8000E00F08CF8641CE4B2082CF7
:1025C000F4D308EB4700F1B2C0B2FFF7CCFF002410
:1025D0002819A0F5805090F8080E00F07AF8641CD5
:1025E000E4B2082CF4D3BDE8F0810000D43B00082D
:1025F0002DE9F04700241D461646884681460A27E5
:1026000013E0291B0A20491EFFF7A6FFB6FBF0F0D6
:10261000B0FBF7F107FB110208EB0400C1B248461A
:102620003032FFF7B1FF641CE4B2AC42E9D3BDE83D
:10263000F0872DE9F0471E4614008846814604D4F1
:102640002B22FFF7A1FF254603E02D22FFF79CFF79
:10265000654200240A2714E0311B0A20491EFFF7B7
:102660007BFFB5FBF0F0B0FBF7F107FB110208EBC5
:102670000400401CC1B248463032FFF785FF641C9D
:10268000E4B2B442E8D3BDE8F0872DE9F041154645
:102690000E460746002406E03019C1B23846FFF75F
:1026A00073FF641CE4B22A5D002AF5D1BDE8F08115
:1026B00010B50446FFF7C6FE7820FFF791FE002014
:1026C000FFF78EFE2046FFF78BFEBDE81040FFF7B8
:1026D000D5BE10B50446FFF7B5FE7820FFF780FEA3
:1026E0004020FFF77DFE2046FFF77AFEBDE8104050
:1026F000FFF7C4BE70477047FEF7B2BC30B58FB06D
:1027000028216846FDF759FD14210AA8FDF755FD5B
:1027100001210804CDE9001000240294022504914F
:10272000CDE907504FF4E01009906846FEF70CFE23
:1027300008B172B6FEE70F20CDE90A054FF48060BC
:10274000CDE90C4002210AA80E94FEF721FD0028D5
:1027500001D072B6FEE70FB030BD7047F0B5026829
:102760001C4B1D4D1D4E1E4F1E4C4FF0804C984271
:1027700009D0A04207D0604505D0A84203D0B0429E
:1027800001D0B84204D122F0700E4A6842EA0E022B
:10279000984209D0A04207D0604505D0A84203D096
:1027A000B04201D0B84203D122F44075CA682A432E
:1027B0004D6922F080022A4302608A68C2620A6878
:1027C0008262984201D0A04201D1096901630121CE
:1027D0004161F0BD002C01400004004000080040B1
:1027E000000C00400034014010B501F01F0301212E
:1027F000046A99408C430462016A9A401143016261
:1028000010BD10B5846842EA032224F47F440A43D1
:102810002243826010BD826822F070020A4342F0B7
:102820000701816070470000F0B5036A026A22F078
:102830000102026242688469124E24F073050C683A
:102840002C4323F002058B682B430D4DA84201D089
:10285000B04205D123F00807CB683B4323F00403C3
:10286000A84201D0B04205D14D6922F4407215430F
:102870008A692A4342608461496841630362F0BD0A
:10288000002C014000340140F0B5026A036A23F0D5
:1028900010030362436884690D6824F4E64444EA43
:1028A00005248D6822F0200242EA05120F4D104ED9
:1028B000A84201D0B04206D1CF6822F0800242EA9D
:1028C000071222F04002A84201D0B04207D14D6960
:1028D00023F4406343EA85038D6943EA850343603B
:1028E0008461496881630262F0BD0000002C0140F0
:1028F00000340140F0B5026A036A23F48073036276
:102900004368C46922F4007224F073050C68124E07
:102910002C438D6842EA05220E4DA84201D0B042F8
:1029200006D1CF6822F4006242EA072222F48062D4
:10293000A84201D0B04207D14D6923F4405343EA85
:1029400005138D6943EA05134360C4614968C16397
:102950000262F0BD002C01400034014030B5046A31
:10296000026A22F4805202624268C3690D6823F44D
:10297000E64343EA05238D6824F4005444EA053411
:10298000084DA84202D0084DA84204D14D6922F456
:10299000804242EA85124260C36149680164046270
:1029A00030BD0000002C01400034014010B5036A26
:1029B000046A24F001040462846924F0F00444EA07
:1029C000021423F00A020A438461026210BD10B5AA
:1029D000036A046A24F010040462846923F0A003EB
:1029E00024F4704444EA023243EA01118261016234
:1029F00010BD10B5406A0021C185C184FFF755F8AC
:102A000010BD01680C3151E8002F22F4907241E8AA
:102A10000023002BF5D10168143151E8002F22F07A
:102A2000010241E80023002BF5D1016B012909D1F6
:102A300001680C3151E8002F22F0100241E8002318
:102A4000002BF5D1202180F842100021016370474E
:102A500008B590F84210222901D0022008BD8268F2
:102A60004FF480539A4201D1016921B1816A9A429F
:102A70001BD04AB10AE00268816A5268C2F30802B8
:102A80000A80816A891C08E0026972B10268526892
:102A900002F07F020A70816A491C8162C18D491E61
:102AA0000904090CC18503D01BE002685268F1E7F4
:102AB0000168CA6822F02002CA600168CA6822F46C
:102AC0008072CA6001684A6922F001024A612021CD
:102AD00080F8421000214163026B012A03D0FFF706
:102AE0000FFA002008BD016301680C3151E8002F86
:102AF00022F0100241E80023002BF5D101680A689A
:102B0000D20602D50A6849680091818DFEF7CCFF94
:102B1000E7E7000070B5044600680169E26821F447
:102B20004051114301612169A0680843616908436C
:102B30002168CA6841F20C639A430243CA60206864
:102B40004169A26921F44071114341611E49206825
:102B5000884202D1FEF7C2FB01E0FEF7AFFB00EBBB
:102B6000C00101EB0012606864218000B2FBF0F349
:102B7000B3FBF1F36FF018067343B2FBF0F5B2FB51
:102B8000F0F605EB8305322303EB0515B5FBF1F5F4
:102B9000B6FBF1F605F0F00505EB0615B2FBF0F615
:102BA000B2FBF0F0B0FBF1F06FF01802504306EB0F
:102BB000800003EB0010B0FBF1F0216800F00F0083
:102BC0002844886070BD0000003801402DE9F041C4
:102BD000984617460E460446069D27E0681C25D0F9
:102BE0002DB1FEF737FAA0EB0800A8421ED92068E5
:102BF0000C3050E8001F21F4D07140E80012002A88
:102C0000F5D12068143050E8001F21F0010140E8A0
:102C10000012002AF5D1202084F8410084F84200F7
:102C2000002084F840000320BDE8F081206800689F
:102C300036EA000004D00020B842CFD00020F3E7ED
:102C40000120F9E710B5044800F05AF8BDE810403B
:102C50000148FEF72BBF00005804002010B50448BF
:102C600000F04EF8BDE810400148FEF71FBF00001D
:102C7000A00400200FB40E4870B505AA049900F016
:102C800035F90B48FDF7B6FA0A4A11684906FCD532
:102C9000084C0021064B241D05E05D5C256015688D
:102CA0006D06FCD5491C8142F7D370BC5DF814FB5E
:102CB0005803002000440040104808B50168CA6865
:102CC00042F01002CA600168CA6842F02002CA607D
:102CD0000068016840680090084848300168CA6888
:102CE00042F01002CA600168CA6842F02002CA605D
:102CF000006801684068009008BD0000580400208A
:102D00002DE9FC4700258DF800500068394901275E
:102D1000DFF8E4A0394C4FF47A796FF0200888424C
:102D200033D1374E30680068C043800616D4002285
:102D300080215046FEF788F94B460122694630460D
:102D4000FFF788F82078A6F540729DF8001011541E
:102D5000401C2070A5803168C1F800803068006890
:102D6000C043C0060FD4012280215046FEF76CF903
:102D7000A07810B1A580A57000E0A780257030680C
:102D8000016840680190BDE8FC871E498842FAD17D
:102D90001B4E483630680068C043800619D40022B4
:102DA00080215046FEF750F94B46012269463046D5
:102DB000FFF750F82078A6F512729DF80010115414
:102DC000401C20706078401C6070E5803168C1F85C
:102DD000008030680068C043C006D4D4012280213E
:102DE0005046FEF731F9E07810B1E580E570C5E7AF
:102DF000E780C3E7003801400020014014000020B4
:102E00005804002000440040FEE7000070B505466D
:102E10000C464FF4FA70FEF709F821462846FDF7F4
:102E2000ADFE040004D0FD2C15D0FF2C11D106E01E
:102E300001210CA20846FFF728FC0EA205E00121A3
:102E400008A20846FFF721FC0EA201210846FFF761
:102E50001CFC204670BD012102A20846FFF715FCAC
:102E60000CA2F2E72020202020202020202020205B
:102E70002020200057494649205345545353494484
:102E8000204F4B005749464920434F4E4E4543542F
:102E9000204E4F0057494649204E6574776F726B3C
:102EA000204E4F000FB4054B10B503A9044A0298F9
:102EB00000F014F910BC5DF814FB00001538000890
:102EC000300000200FB4084B10B504A902AA0398E3
:102ED00000F004F9044602A9002000F096FC204608
:102EE00010BC5DF814FB00000B38000837B5144621
:102EF0000846064B6A46214600F0F0F8044669464B
:102F0000002000F082FC20463EBD00000B38000887
:102F10000907090E002804DB00F1E02080F8001406
:102F2000704700F00F0000F1E02080F8141D70479A
:102F3000004870473400002002E008C8121F08C192
:102F4000002AFAD170477047002001E001C1121F2A
:102F5000002AFBD1704700002DE9FF5F82B00021FD
:102F6000DDE90430020DDDF840B0034318D044F62B
:102F70001050A2F2FF3242431514119801281FD0BD
:102F8000A5EB0B00401C5FEA000A4FF000064E4F15
:102F9000DFF83891B046504615D5CAF1000413E069
:102FA000119801244AA3012801D16FEA0B0102986C
:102FB000119AC0E90031C0E9024206B0BDE8F09FB5
:102FC000CBF10000DFE704460021404A491842EBFC
:102FD0000450CDE9001012E0E00707D032463B462E
:102FE00040464946FDF73DF98046894632463B4614
:102FF00010461946FDF735F906460F466410002CB9
:10300000EAD1DDE90401DDE90023BAF1000F06DAB7
:10301000FDF727F942464B46FDF723F905E0FDF79A
:1030200045FB42464B46FDF741FB04460E46002257
:10303000284BFDF7C3FB03D84FF0FF30014607E0F4
:103040000022254B20463146FDF789FAFDF79DFB0E
:10305000102409E0002C0ADB0A220023FDF7B9F94D
:10306000039B30321A55641E50EA0102F2D1641CEF
:10307000039AC4F111031444119A012A03D00122C6
:1030800008430DD10AE0084304D000204FF0110B93
:10309000119072E7A3EB0B056D1E0DE05B4504DD9F
:1030A0004FF0000205F1010504E003DA4FF00002E1
:1030B000A5F10105002AECD002981199C0E902316E
:1030C000C0E9004579E70000000014400000F03F2F
:1030D000300000000000F0430000E03F2DE9FF4F0A
:1030E00095B09B468946064600250FE2252877D1F4
:1030F00000242746F84A0121059400E0044316F80D
:10310000013F203B01FA03F01042F7D130782A2822
:1031100011D06FF02F033078A0F13002092A16D8B1
:10312000059A44F0020402EB820203EB42021044CF
:10313000761C0590EFE759F8042B0592002A03DA74
:10314000504244F40054059044F00204761C307858
:103150002E2816D116F8010F44F004042A280DD0A9
:103160006FF02F023078A0F13003092B09D807EB5C
:10317000870302EB4303C718761CF3E759F8047B77
:10318000761C30786C280FD006DC4C2817D06828C5
:103190000DD06A2814D104E0742810D07A280FD1F9
:1031A0000DE044F400140AE044F4801401E044F417
:1031B00040147278824202D104F58014761C761C89
:1031C000307866280BD013DC582877D009DC00282B
:1031D00075D04528F6D04628F4D047281AD19DE16D
:1031E00018E0632835D0642879D0652812D195E19C
:1031F000702873D008DC6728F1D069286FD06E285A
:103200000DD06F2806D1B5E073282CD0752875D065
:10321000782874D05A46179990476D1C75E1C4F30D
:103220000250022809D003280DD0D9F80010042834
:103230000DD00D6009F1040967E1D9F80010EA1713
:10324000C1E90052F6E7D9F800100D80F2E70D70E1
:10325000F0E719F8041B8DF8001000208DF801002C
:10326000EA46012003E059F804AB4FF0FF30610754
:103270004FF0000102D40DE008F101018846B94287
:103280000FDA8045F8DB1AF808100029F4D108E0BD
:1032900008F1010188468142FADB1AF8081000297A
:1032A000F6D105985B46A0EB080721463846179AE9
:1032B00000F094FA284400EB080507E04DE029E10E
:1032C0000DE01AF8010B5A4617999047B8F101081A
:1032D000F7D25B4621463846179A13E142E00A22AC
:1032E0000092C4F302524FF0000A022A08D059F8A3
:1032F00004CB032A4FEAEC710AD00DE029E02AE062
:1033000009F1070121F00702F2E802C1914609E044
:103310000FFA8CFC4FEAEC71042A03D14FFA8CFCB3
:103320004FEAEC71002907DA0A460021DCF1000CB3
:1033300061EB02012D2202E0220504D52B228DF83B
:103340000420012203E0E20701D02022F7E79046A3
:1033500059E00A2102E010220DE010214FF0000A8E
:1033600000910BE010224FF0000A44F004040827FB
:10337000009203E008224FF0000A0092C4F30252C8
:10338000022A05D059F804CB0021032A08D009E00D
:1033900009F1070121F00702F2E802C1914605E0B8
:1033A0001FFA8CFC042A01D10CF0FF0C4FF000082E
:1033B000220728D5702806D0009B83F0100353EA1B
:1033C0000A0305D00EE040228DF80420012208E017
:1033D0005CEA010206D030228DF804208DF8050049
:1033E00002229046009B83F0080353EA0A030AD1A5
:1033F0005CEA010201D1620705D530228DF8042074
:103400004FF001087F1E582804D034A003900EA866
:1034100002900DE036A0F9E753466046009AFCF7AB
:10342000D8FF84460398825C0298401E0290027086
:103430005CEA0100F0D1029806A9081A00F1200AFE
:10344000600702D524F4803400E00127574502DDEF
:10345000A7EB0A0000E0002000EB0A0100900598AD
:103460004144401A0590E00306D45B462146179A72
:10347000059800F0B3F90544002706E001A85A4674
:10348000C05D179990476D1C7F1C4745F6DBE00334
:103490000CD55B462146179A059800F09FF9054424
:1034A00004E030205A46179990476D1C0099481E39
:1034B00000900029F5DC08E0029802995A4600784D
:1034C000491C0291179990476D1CBAF10001AAF1AD
:1034D000010AF1DC65E100000928010030313233D6
:1034E0003435363738396162636465660000000040
:1034F000303132333435363738394142434445462A
:103500000000000000F058F90544761C30780028CF
:103510007FF4ECAD19B02846BDE8F08F620700D407
:10352000062709F1070222F0070CFCE80223E14616
:1035300003F000485FEA080C02D00FF2702C0DE097
:103540005FEA045C02D50FF2682C07E05FEAC47CF6
:1035500002D00FF2602C01E0AFF2700C4FF0FF3898
:1035600023F00043CDF850C065280CD006DC452878
:1035700009D046281DD047283DD13DE0662818D007
:1035800067287ED138E00021112F01DB112000E0F7
:10359000781CCDE9000106A90EA8FFF7DDFCDDE9E6
:1035A0000F010E9A03910021009207F1010A049184
:1035B0004DE04FF000400097CDE9011006A90EA89C
:1035C000FFF7CAFCDDE90F0203920E9B119900225E
:1035D000DDF80CA00093049211B9791C00EB010AEC
:1035E000B7EB0A0004D4C0F1FF3007F1010A0490E0
:1035F000AAEB0700019044E0012F00DA0127002127
:10360000112F01DD112000E03846CDE9000106A9A7
:103610000EA8FFF7A1FCDDE90F010E9A039100212E
:1036200004910092BA4621070CD40399514500DA5F
:103630008A46BAF1010F05DD009AAAF10101515C39
:10364000302908D0B84202DA10F1040F06DA01215D
:10365000CDE9011015E0AAF10101E9E7002805DC38
:10366000049901440491AAEB000102E0411C514578
:1036700000DD8A460499401A401C01904FF000403A
:103680000290200704D40198504501DBCDF8048056
:1036900000208DF84F0002980DF14F07B0F1004F58
:1036A00025D02B200E9002984FF0020800280CDA4B
:1036B000404202902D200E9007E00A210298FCF76C
:1036C00072FE3031029007F8011DB8F10001A8F137
:1036D0000108F2DC02980028EFD1791E0E980870DC
:1036E000307800F0200040F0450007F8020D12A8E5
:1036F000C01B00F107081498007800B1012000EB0E
:103700000A01019801EBE07105984144401A401EFE
:103710000590E00306D45B462146179A059800F011
:103720005DF805441498007818B15A4617999047E7
:103730006D1CE00324D55B462146179A059800F0DE
:103740004DF805441CE00498002807DBDDE903017F
:10375000884203DD0098405C179901E017993020FA
:103760005A469047049805F10105401C04900198C1
:10377000401E019004D12E205A46179990476D1C87
:10378000BAF10001AAF1010ADDDC05E017F8010B2E
:103790005A46179990476D1CB8F10001A8F101082D
:1037A000F4DC5B462146179A0598ABE62D00000035
:1037B0002B000000200000002DE9F0410446002508
:1037C0001E461746880404D405E039462020B04739
:1037D0006D1C641EF9D52846BDE8F0812DE9F04145
:1037E000044600251E469046C80301D5302700E058
:1037F0002027880404D505E041463846B0476D1CB3
:10380000641EF9D52846BDE8F0810A68531C0B6098
:103810001070704713B54FF6FF73012269460248D6
:10382000FEF76FFB00981CBD58040020FDF720FC3C
:10383000FEF764FFFEF73AFEFEF7C4FCFEF750FD0C
:10384000FEF76AFDFEF7FEFC00216948FEF7D2F89C
:10385000684F002204213846FDF7F6FBFFF72CFAEB
:1038600065A168A0FFF7D2FA0446C820FDF7DEFA8A
:10387000002CF5D1644C4FF47A7506E063A165A085
:10388000FDF74CF82846FDF7D1FA20780028F5D14D
:103890000125257063A266A167A000F01BF92078BE
:1038A000E8B167A0FFF7E6F920780028F2D1DFF849
:1038B000A481694E25704FF4FA7A68A000F04AF9A5
:1038C000207870B166A000BFFFF7D4F920780028F7
:1038D000F3D14FF4487B3088012804D057E066A02C
:1038E000E0E76AA0F0E770A17048FCF78BFCC8F82D
:1038F000000045466CA10020FCF784FC68606AA1CA
:103900000020FCF77FFCA860D5E90005FCF79CFCD3
:103910001FFA80F92846FCF797FC05042D0C2FD0E0
:10392000D8E900124DA0FDF785F8642D02D9B9F150
:10393000010F3DD0002204213846FDF785FB01210F
:103940005BA20846FEF7A1FE01215CA20846FEF735
:103950009CFE01234A4609211846FEF749FE5AA259
:1039600001210220FEF791FE04232A4607210220AE
:10397000FEF73EFE0523012103206268FEF759FE93
:103980004FF480714948FCF718FC00203080002279
:1039900040213846FDF758FBC820FDF747FA0122C1
:1039A00040213846FDF750FB5846FDF73FFA92E7B5
:1039B000012204213846FDF747FBA068281AE06081
:1039C000FCF7C1FC4FF06632414BFCF74AFCFCF7B8
:1039D000CBFC60600028014600DA4942514500DB1B
:1039E00050460349C0F5FA70606009684863A6E76D
:1039F0000C01002000200140313233343536373895
:103A00000000000065737000040000203630303282
:103A1000000000003138332E3233302E34302E3354
:103A20003900000031323033313530393332000063
:103A3000736D6C6967687400363238373939000045
:103A4000456E746572204D515454204572726F72E8
:103A5000210D0A00000100201A00002024647000DB
:103A6000537562736372697074696F6E2066616901
:103A70006C6564210D0A0000456E746572204D511D
:103A80005454204F4B210D0A0000000053756273FF
:103A90006372697074696F6E2073756363656564C2
:103AA0006564210D0A0000002C000000580200206F
:103AB000202020202020202020202000696E6672F7
:103AC0006172643A000000006C696768743A000033
:103AD0006666F63F2DE9F043194DC1B04FF000087E
:103AE00002246B46C5F80080FEF75AFA82B22860BD
:103AF000642369461348FEF704FADFF84C90134D2F
:103B0000134E14E01D2728783178884209D168784F
:103B10007178884205D189F80080002041B0BDE865
:103B2000F0836420FDF782F97F1EFFB2EBD2641EA2
:103B3000E4B2E7D2012189F800100846EEE7000060
:103B4000000000205804002004000020580100203C
:103B5000EE4100082DE9F043194DC1B000270224C1
:103B60006B46012239462F60FEF7E8FA82B22860E0
:103B7000642369461348FEF7C4F9DFF84C90134DEF
:103B8000DFF84C8010E01D26297898F8002091423B
:103B900004D1697898F80100814209D06420FDF7CA
:103BA00045F9761EF6B2EFD2641EE4B2EBD22CB128
:103BB00089F80070002041B0BDE8F0830120FAE7E9
:103BC00000000020580400200400002058010020BC
:103BD000F2410008000000000000000000000000AA
:103BE00000000000000000F80000000000000033AA
:103BF0003000000000100C06100C06000000000051
:103C00000000000040C07840C0784000043F040439
:103C10003F040400007088FC08300000001820FFFA
:103C2000211E0000F008F000E018000000211C0335
:103C30001E211E0000F00888700000001E212324B1
:103C40001927211010160E000000000000000000CF
:103C500000000000000000E018040200000000075F
:103C60001820400000020418E00000000040201866
:103C700007000000404080F0804040000202010F39
:103C800001020200000000F0000000000101011F1D
:103C900001010100000000000000000080B0700081
:103CA0000000000000000000000000000001010111
:103CB00001010101000000000000000000303000A0
:103CC000000000000000000080601804006018067A
:103CD0000100000000E010080810E000000F1020B4
:103CE00020100F00001010F8000000000020203FFE
:103CF0002020000000700808088870000030282488
:103D00002221300000300888884830000018202028
:103D100020110E000000C02010F80000000704244D
:103D2000243F240000F80888880808000019212092
:103D300020110E0000E0108888180000000F1120EC
:103D400020110E0000380808C83808000000003FA5
:103D5000000000000070880808887000001C222104
:103D600021221C0000E010080810E00000003122B1
:103D700022110F00000000C0C00000000000003051
:103D800030000000000000800000000000008060A3
:103D90000000000000008040201008000001020424
:103DA000081020004040404040404000040404040B
:103DB00004040400000810204080000000201008C7
:103DC00004020100007048080808F00000000030FC
:103DD00036010000C030C828E810E000071827248A
:103DE00023140B000000C038E0000000203C230238
:103DF0000227382008F8888888700000203F20209B
:103E000020110E00C03008080808380007182020CC
:103E10002010080008F808080810E000203F2020C3
:103E200020100F0008F88888E8081000203F2020A4
:103E30002320180008F88888E8081000203F200098
:103E400003000000C03008080838000007182020D0
:103E5000221E020008F808000008F808203F21018F
:103E600001213F20000808F8080800000020203F3A
:103E70002020000000000808F8080800C0808080AA
:103E80007F00000008F888C028180800203F2001A3
:103E90002638200008F8080000000000203F2020FD
:103EA0002020300008F8F800F8F80800203F003F14
:103EB000003F200008F830C00008F808203F20002C
:103EC00007183F00E01008080810E0000F1020203D
:103ED00020100F0008F808080808F000203F210112
:103EE00001010000E01008080810E0000F18242469
:103EF00038504F0008F8888888887000203F2000DC
:103F0000030C302000708808080838000038202191
:103F100021221C00180808F8080818000000203F9B
:103F20002000000008F808000008F808001F202002
:103F300020201F000878880000C8380800000738D3
:103F40000E010000F80800F80008F800033C070024
:103F5000073C0300081868808068180820302C038C
:103F6000032C30200838C800C83808000000203F63
:103F70002000000010080808C83808002038262152
:103F800020201800000000FE020202000000007F56
:103F900040404000000C30C0000000000000000164
:103FA0000638C00000020202FE000000004040404F
:103FB0007F00000000000402020204000000000074
:103FC00000000000000000000000000080808080F1
:103FD00080808080000202040000000000000000D9
:103FE0000000000000008080808000000019242272
:103FF00022223F2008F8008080000000003F1120AE
:1040000020110E000000008080800000000E1120B2
:1040100020201100000000808088F800000E112090
:1040200020103F200000808080800000001F22229E
:1040300022221300008080F0888888180020203F0A
:10404000202000000000808080808000006B94941D
:104050009493600008F8008080800000203F2100D9
:1040600000203F2000809898000000000020203FA2
:1040700020200000000000809898000000C0808090
:10408000807F000008F8000080808000203F24022C
:104090002D302000000808F8000000000020203F1C
:1040A000202000008080808080808000203F2000D1
:1040B0003F20003F8080008080800000203F210062
:1040C00000203F200000808080800000001F202012
:1040D00020201F00808000808000000080FFA12041
:1040E00020110E000000008080808000000E112052
:1040F00020A0FF80808080008080800020203F21E1
:104100002000010000008080808080000033242493
:1041100024241900008080E0808000000000001F3F
:10412000202000008080000000808000001F2020F0
:1041300020103F20808080000080808000010E30B1
:104140000806010080800080008080800F300C0312
:104150000C300F0000808000808080000020312E15
:104160000E312000808080000080808080818E70F1
:104170001806010000808080808080000021302CA3
:104180002221300000000000807C020200000000BC
:10419000003F404000000000FF0000000000000061
:1041A000FF0000000002027C800000000040403F51
:1041B00000000000000601010202040400000000EB
:1041C00000000000010202030405060708090A0BAB
:1041D0000C0D0E0F10100000000000000000010286
:1041E000030406070809000000000102030420027E
:1041F000000090030040404040404040404041416A
:1042000041414140404040404040404040404040AB
:104210004040404040050202020202020202020245
:104220000202020202202020202020202020200242
:1042300002020202020290909090909010101010D2
:10424000101010101010101010101010101010106E
:104250000202020202028888888888880808080802
:1042600008080808080808080808080808080808CE
:104270000202020240000000F54100089C420008D2
:104280000000002038000000382F0008D442000849
:1042900038000020B0080000482F0008000000008F
:1042A000010000000000000090010000000000007C
:1042B00000000101000000000100000010000000EB
:1042C000000000000024F4000000000000000000D6
:0442D00000000000EA
:0400000508000131BD
:00000001FF
