:020000040800F2
:1000000038090020D5000008F9210008731E0008F7
:1000100000000000000000000000000000000000E0
:10002000000000000000000000000000972300080E
:10003000000000000000000095230008992300083C
:10004000E7000008E7000008E7000008E7000008F4
:10005000E7000008E7000008E7000008E7000008E4
:1000600000000000E7000008E7000008E7000008C3
:10007000E7000008E7000008E7000008E7000008C4
:10008000E7000008E7000008E7000008E7000008B4
:1000900000000000E7000008E7000008E700000893
:1000A000E7000008E7000008E7000008C128000892
:1000B000D5280008E700000800000000000000004C
:1000C0000348854600F0A6FA004800478D35000831
:1000D000380900200448804704480047FEE7FEE74F
:1000E000FEE7FEE7FEE7FEE729240008C10000085E
:1000F00030B50B46014600202022012409E00D46C0
:10010000D5409D4205D31D469540491B2546954047
:1001100040191546521E002DF1DC30BDF0B51FB45C
:100120000646002082B005464024019100901BE065
:10013000019922460F46304600F094F8049A059B38
:10014000801A994110D310461946224600F07AF8D9
:10015000361A8F410197224601200021009F00F0AE
:1001600071F838184D4100902046641E0028DFDCED
:10017000019B00982946324607B0F0BD03460B4369
:100180009B0703D009E008C9121F08C0042AFAD24D
:1001900003E00B780370401C491C521EF9D27047D3
:1001A000D2B201E00270401C491EFBD2704700220F
:1001B000F6E710B513460A4604461946FFF7F0FF66
:1001C000204610BD30B505462A460B4610781C78EF
:1001D000521C5B1C002801D0A042F7D0002C03D099
:1001E000002802D06D1CEFE7284630BD421C017884
:1001F000401C0029FBD1801A7047000070B5104DDB
:10020000002800D12868002414E00A4602E09E423B
:1002100003D0521C1378002BF9D1DAB2224307D055
:10022000002B06D0002C04D000210170401C04E0FB
:100230000446401C0678002EE7D12860204670BD99
:100240003000002010B5202A04DB0146203A9140FE
:10025000002010BD914020239C1A0346E34019431F
:10026000904010BD10B5202A04DB0846203AD0404B
:10027000002110BD0B46D340D0402024A21A91404B
:100280000843194610BD0000F0B50746084658401F
:1002900087B0C00F049048000E4659004008490836
:1002A000BC1A884105D2384631461E4617460B46D1
:1002B00002465800400810434CD0300D03904005D2
:1002C0005900400D490D0590401A0290402872DAFD
:1002D00018030121000B09050843019004980092BE
:1002E000002805D0019952420020884100920190D7
:1002F000029840210A1A01990098FFF7A3FF0546CA
:100300000C466B4607CB00F097F9C0197141039A70
:100310000E0D0023D71756401A467A40164344D094
:10032000049A002A2DD0029A012A039A15DC12059C
:10033000C01A914101263605001C7141D20F059E5D
:10034000D2070093019202962A46234600F094F9C0
:1003500007B0F0BD38463146FAE71605224A0F4687
:10036000B218C01AB74101210905001C4F410018FD
:100370007F41114618187941E20F10436D1964410D
:1003800013E0E2076D0815436408C2071443039A9B
:1003900001261205C01A91413605001C7141CE0795
:1003A000400830434908C01851412A46234600F00E
:1003B00056F9CDE7FFE7049801224000C117121A51
:1003C00000238B4104983146C417381AA141EEE747
:1003D00030B40124E407634030BC55E730B4012455
:1003E000E407614030BC4FE70000E0FFF0B51FB408
:1003F00088B00B990998002448400999C00F49001A
:1004000049080991C0070B990090490049080B91D0
:1004100009990898A64608431CD00B990A980843E6
:1004200018D0099801244000420D4800410D099858
:1004300024050003000B204309900B980003000BD8
:1004400020430B9050181C4940180022019014467C
:10045000104605E0002001460DB0F0BD032801DA8A
:10046000034600E003239C46C11A0AAE0AE05F007F
:1004700008ADED5B4F00F75B7D430027AA187C4178
:10048000491C5B1E6145F2DD410004AB5A52210458
:10049000120C0A43240C401C0828DFDB0198029050
:1004A0000099704601910090059B049A079906985F
:1004B00000F0E2F8D0E700000DFCFFFFF0B50C46BD
:1004C0005C4085B0E40FE40703944C000026640808
:1004D00059009446490802460296224321D06246BA
:1004E0000A431ED06200570D4A000E032303550D28
:1004F000012402462C492405781B1B0B360B40189F
:1005000023432643614600901C46501AB44103D34E
:100510000098401C009002E0921800985B4100286F
:1005200003DA0020014605B0F0BD002001210905D5
:100530000746864611E064461D46141BB54106D3A6
:100540006546521BB341744607430C43A646CD078C
:1005500040084908284392185B4105460D43EAD1FB
:100560001046184313D06046194650407140084366
:1005700006D06046101AB34106D20122002306E0DD
:1005800000220123DB0702E00122D243531000982E
:1005900074460105381C6141029C039D00196941A4
:1005A00000F05DF8BFE70000FD0300004A0009030A
:1005B0000123090B1B0519430A4B10B5520D9A4232
:1005C00002DA0020014610BD064B34339A4203DCA8
:1005D0009A1AFFF747FE10BD034BD218FFF732FE01
:1005E00010BD0000FF030000CDFBFFFF10B5002988
:1005F00004DB0124E40740428C412146002B04DB4C
:100600001C460123DB075242A341994200D190428C
:1006100010BD0000064C0125064E05E0E36807CC3E
:100620002B430C3C98471034B442F7D3FFF74CFDF2
:10063000D8440008F844000810B5202A06DBCB1780
:100640000846203A1041C1170B4306E00B46134100
:10065000D0402024A21A91400843194610BD10B57D
:10066000002B08DA0024401C614192185B411A43B8
:1006700001D14008400010BDF0B51FB482B005465E
:100680000C0003D0084602F059FA02E002F056FAD4
:1006900020300246009021462846FFF7D3FD049BF8
:1006A000059A04460F4618431143084314D01846D0
:1006B00010431BD0009840210A1A18460599FFF7ED
:1006C000D1FD05460E46009A05990498FFF7BAFD3C
:1006D000084305D0012004E02046394607B0F0BDAC
:1006E0000020C11705430E432C43374300990E9851
:1006F0006305401A7905E40A00220C43FD0A0A301A
:1007000002D500200146E9E70105101969410C9C5A
:100710000D9D00196941FFF7A2FFDFE7F0B56448BE
:1007200087B0416B022529434163406BEE022840AC
:100730000124052700963F0705900194694603951B
:100740000294384600F034FB202000900194694662
:1007500003950294384600F02BFB80200090019412
:10076000694603950294384600F022FB0122314687
:10077000384600F0D0FB01222021384600F0CBFBA8
:1007800001228021384600F0C6FB0122D402214616
:10079000384600F0C0FB642000F0F8FA0022214641
:1007A000384600F0B8FB642000F0F0FA0122214640
:1007B000384600F0B0FB0021AE2001F0BCFD002166
:1007C000022001F0B8FD0021102001F0B4FD00214D
:1007D000402001F0B0FD0021812001F0ACFD00219E
:1007E000CF2001F0A8FD0021A12001F0A4FD0021EF
:1007F000C82001F0A0FD0021A62001F09CFD0021F1
:10080000A82001F098FD00213F2001F094FD002177
:10081000D32001F090FD0021084601F08CFD00215D
:10082000D52001F088FD0021802001F084FD002109
:10083000D92001F080FD0021F12001F07CFD002194
:10084000DA2001F078FD0021122001F074FD002172
:10085000DB2001F070FD0021402001F06CFD002143
:10086000202001F068FD0021022001F064FD00213C
:100870008D2001F060FD0021142001F05CFD0021BD
:10088000A42001F058FD0021A62001F054FD002114
:10089000AF2001F050FD0021AF2001F04CFD01F030
:1008A000ACFC0021084601F0C6FC07B0F0BD00001A
:1008B0000010024010B50C4BDA695206FCD500223C
:1008C00006E0845C9C62DC696406FCD5521CD2B2F2
:1008D0008A42F6D3054900204870FF2101310448BF
:1008E000FFF765FC10BD000000440040160000202A
:1008F0001802002070B50C460546C8212548FFF7B0
:1009000056FC25A20221002001F0FEFC26A20221B5
:10091000002001F0F9FC20A20421002001F0F4FCE9
:1009200025A20421002001F0EFFC1BA206210020DB
:1009300001F0EAFC22460621002001F0E5FC2346F6
:100940002A4621A1134802F0D3F8264800F01EFAE7
:10095000254A26A10F4800F0B9F8002801D005204B
:1009600070BD642223A124A000F0B0F8002801D0BB
:10097000012070BD642224A124A000F0A7F8002863
:1009800001D0042070BD244900200880234908704C
:1009900070BD0000380000202020202020202020D2
:1009A0002020202020202000434F4E4E452053453C
:1009B00052564552202E2E004F6E654E45545374AC
:1009C0007564696F494F540041542B434950535447
:1009D0004152543D22544350222C222573222C256F
:1009E0007300000088130000B80B0000434F4E4E08
:1009F000454354004F4B000041542B4349504D4F49
:100A000044453D31000000003E00000041542B43AE
:100A1000495053454E4400001A00002005000020B4
:100A2000F0B50746144CC1B000200D4620601646B4
:100A3000C8211248FFF7BBFB2B46324610A10F48D6
:100A400002F056F86B4600220C49384601F08CFA49
:100A500082B22060642369460F4801F09DF9FF21AE
:100A600001310E48FFF7A3FBFF202D3000F08EF977
:100A7000012041B0F0BD000000000020380000203F
:100A80007B2268756D69223A25732C2274656D701E
:100A9000223A25737D000000180400201801002070
:100AA00010B5084900240988012909D101460648E2
:100AB000FFF788FB0446FF2101310348FFF777FB6E
:100AC000204610BD1A00002018010020F7B5FF21B4
:100AD0001446002701311748FFF769FB164D002621
:100AE0002E8016A0009901F0F3FF16A0009901F0E6
:100AF000FBFE019800281AD0002C13D117E00A2021
:100B000000F044F9288801280CD10A4910A001F00E
:100B1000EBFE0198FFF7C4FF002802D0002C05D09F
:100B200005E02E80641E2404240CE8D101272E80C9
:100B30003846FEBD180100201A00002025730D0A5A
:100B40000000000041542D2D3E25730D0A000000C9
:100B5000526563657669652D2D3E25730D0A00008B
:100B600070B50C4605462DA20221002001F0CCFBF9
:100B70002EA20221002001F0C7FBC8222FA130A025
:100B8000FFF7A4FF002808D0C8222CA12CA0FFF753
:100B90009DFF002801D0FF2070BD20A2022100206F
:100BA00001F0B2FB28A20221002001F0ADFBC82217
:100BB00022A129A0FFF78AFF18A20221002001F03C
:100BC000A3FB28A20221002001F09EFBC821294896
:100BD000FFF7EDFA11A20421002001F095FB2A464F
:100BE0000421002001F090FB0CA20621002001F05E
:100BF0008BFB22460621002001F086FB23462A4675
:100C00001DA11C4801F074FF7D22D2001FA11948CC
:100C1000FFF75CFF0028BFD0FD2070BD2020202002
:100C20002020202020202020202020005749464935
:100C300020434F4E4E454354202E2E004F4B000074
:100C4000415445300000000057494649205345545F
:100C50004D4F4445202E2E0041542B43574D4F44B9
:100C6000453D330057494649205345545353494461
:100C7000202E2E003800002041542B43574A41506B
:100C80003D222573222C2225732200005749464914
:100C900020474F542049500072B6FEE7F0B50028B7
:100CA00008D0014620314A79022A05D00422C263C5
:100CB000002008710120F0BD026813680E24A343D0
:100CC0001360426C1468FF2301339C431460026874
:100CD00014686408640014600C4A5568066C1C248F
:100CE000264001242746B7403D435560826CC56CC1
:100CF0005560026D002A05D015689D431560826D10
:100D0000406D42604C7100200871F0BD000002404F
:100D1000F8B50024024620325179022903D004217B
:100D2000C16301242DE001680B680E25AB430B6005
:100D300001680B685B085B000B60416C0B68FF256A
:100D40000135AB430B6010494D68066C1C231E40F7
:100D500001231F46B7403D434D60816CC56C4D601B
:100D6000016D002906D00E681D02AE430E60416D74
:100D7000856D4D60537100211171816B002900D088
:100D800088472046F8BD00000000024070B50446C8
:100D900000F0C8F80546601C02D00448007824180A
:100DA00000F0C0F8401BA042FAD370BD2000002024
:100DB000FCB5002301259AE022462C469C402240A7
:100DC0006FD04E68012E05D0022E03D0112E01D017
:100DD000122E16D186680327B4465E00B646B74089
:100DE0006646BE43B446CF687646B740664637434C
:100DF00087604668A6430C79E406E40F9C403443C0
:100E00004460C6685F000324BC40A446A6438C68C7
:100E1000BC403443C4604C68022C01D0122C14D165
:100E2000DC08A40024180194266A5C07B646E60E86
:100E30000F24B44000967646A643B6460C69009E41
:100E4000B44076462643019C266204686646B44355
:100E50000E79B607B60FBE40264306604C68E40024
:100E600044D59E08254CB6003419A446246E9E072E
:100E7000F60E0F27B740BC4305273F07B84201D104
:100E8000002710E01E4FB84201D101270BE01D4F93
:100E9000B84201D1022706E01B4FB84202D1032716
:100EA00001E023E00527B740274364462766134E39
:100EB000803634684F689443FF0300D51443346090
:100EC00074684F689443BF0300D5144374600B4C9F
:100ED00026684F689643FF0200D516432660666871
:100EE0004F689643BF0200D5164366605B1C0A68D4
:100EF0001446DA4000D05FE7FCBD00000018024055
:100F00000004005000080050000C00500069084028
:100F100000D001207047002A01D0816170478162B2
:100F200070470000014880687047000020000020E2
:100F3000024881680278891881607047200000208B
:100F400010B508480024016882151143016020464D
:100F500000F00AF8002801D0012401E000F028F890
:100F6000204610BD0020024070B50F4E002431789D
:100F70000546002915D07D20C000FFF7B9F80146CD
:100F80000A480068FFF7B4F800F034FC002808D1E4
:100F9000042D06D200222946401E00F02BF8756071
:100FA00000E00124204670BD200000202C0000201D
:100FB00008B509480168012211430160006810402A
:100FC000009005484038C26B01040A43C263C06BFD
:100FD0000840009008BD000040100240002805DBDA
:100FE000C106C90E01208840014908607047000011
:100FF00000E100E010B501F0B9FD10BD10B50F4CD7
:10100000216803225202914301432160C11FFF392D
:10101000FA390ED10A480621006848430949FFF70A
:1010200067F8401C02E0002805D0401E61694905B0
:10103000F9D4002010BD032010BD00000070004056
:101040002C00002040420F00F8B50446006800263E
:10105000664D800358D5654800274038C06BC000F6
:1010600009D462484038C26B01040A43C263C06BB2
:101070000840012700905E48016882151143016015
:10108000FFF750FF009005E0FFF74CFF0099401A72
:10109000022825D856480068C005F5D5E86903211F
:1010A000090208400FD0616A81420CD0E86903212F
:1010B0000902EA698843012109040A43EA61EA69ED
:1010C0008A43EA61E861C0070FD0FFF72BFF009069
:1010D00008E0FFF727FF0099411A4648814201D9ED
:1010E000032609E0E8698007F3D5E86903210902CE
:1010F0008843616A0843E861002F05D03B484038C7
:10110000C26B01048A43C2632078C00705D06869B6
:10111000616880088000084368612078C00606D5B1
:101120006869032189028843A168084368612088AF
:10113000800506D5686903218904884361690843ED
:1011400068612088400506D5686903210905884340
:10115000A169084368612078800606D56869032183
:1011600009038843E168084368612088400411D579
:101170006869E16980008008084368610121E069CD
:101180008907884206D119484038C16801221204F3
:101190001143C1602068800210D56869012189056A
:1011A000226A884310436861206A884206D10F484A
:1011B0004038C168012212061143C1602088000531
:1011C00012D568690321890388432169084368614E
:1011D000012120698903884206D104484038C1684A
:1011E000012212041143C1603046F8BD4010024094
:1011F0000070004088130000F8B50F46060043D089
:101200004D4D28684007400FB84213D22868C008E7
:10121000C00038432860FFF785FE044605E0FFF76D
:1012200081FE011B4548814261D828684007400F74
:10123000B842F4D13068424C81070DD5400704D53F
:10124000A068072109030843A060A0680F210902D4
:101250008843B1680843A0603078C00732D0706816
:1012600001280AD002280BD000280FD03449403181
:1012700003280ED0C969890704E02168890301E0C9
:1012800021688901002906DB0120F8BD2168490594
:10129000F8E7096AEFE7A168C908C9000143A1603E
:1012A000FFF740FE009006E0FFF73CFE0099411A70
:1012B000224881421BD8A068382108407168C900C3
:1012C0008842F1D128684007400FB84217D91A4820
:1012D0000168C908C90039430160FFF723FE0546CC
:1012E00007E0FFF71FFE411B1448814201D903208C
:1012F000F8BD114800684007400FB842F1D130787E
:10130000400706D5A068072109038843F168084310
:10131000A06000F031F8A1683C2289091140094A17
:10132000515CC906C90EC8400749086007480068F3
:10133000FFF71AFEF8BD00000020024088130000ED
:1013400000100240704400082C00002024000020FF
:101350000648074900688968064A4904490F890018
:10136000515CC906C90EC840704700002C0000201F
:1013700000100240B044000810B5204CA068204A7C
:101380008006400F16D0A0688006410F501001293A
:101390000FD0A1688906490F022912D0A0688006E3
:1013A000400F042823D0A0688006400F032821D0D6
:1013B000002010BD206801218004400F81401046AC
:1013C00012E0E1688B07E1689B0F4906490F491C51
:1013D000032B00D01046FEF78BFEE1684904490E4E
:1013E0004843E168490F491CFEF782FE10BD012009
:1013F000C00310BD7D20000210BD0000001002409F
:101400000024F400F8B504007ED020783827C00707
:10141000EF4D002846D0A868E96838408907890F51
:10142000102802D008280BD001E0032908D00120A1
:101430006268000482420AD129680143296015E0EC
:10144000286880032ED560680028DDD02AE00523B7
:1014500001211B0489049A422A6802D10A432A60A6
:10146000EAE782432A602868884328606068002889
:101470000CD0FFF757FD064604E0FFF753FD801B35
:10148000642873D828688003F7D50BE0FFF74AFD7E
:10149000064604E0FFF746FD801B6428F1D8286863
:1014A0008003F7D42078800769D5A868E9683840B8
:1014B0008A070721920FC902102802D0002813D0F2
:1014C00001E0022A10D0E068002846D0286888434E
:1014D0002169084328602868FF21013108432860FA
:1014E000FFF720FD06462CE02A68520502D5E26887
:1014F000002A89D06A687F231B029A4363691B0212
:101500001A436A60002800E08DE00ED12868884305
:10151000216908432860286801218004400F814028
:10152000AC48FEF7E5FDAC490860AC480068FFF741
:101530001BFD002877D122E0FFF7F4FC801B022876
:101540009FD828684005F7D568687F21090288433D
:10155000616909020843686011E02968FF200130D1
:1015600081432960FFF7DEFC064605E098E0FFF7BF
:10157000D9FC801B022884D828684005F7D420783D
:10158000974E00072ED5A8688006400F03280AD082
:10159000A0690028306A16D0012108433062FFF7A5
:1015A000C1FC07460BE0306A80071BD5A069002804
:1015B0009FD017E0FFF7B6FCC01B022870D8306A36
:1015C0008007F7D50EE0400840003062FFF7AAFC24
:1015D000074604E0FFF7A6FCC01B022860D8306A6B
:1015E0008007F7D4207840076CD5A86800278006CC
:1015F000400F042818D0E86BC00008D4E96B012024
:1016000000070143E963E96B014001270091754838
:101610000168C90519D40168821511430160FFF7FB
:1016200081FC00900DE083E0F06980074AD5A06856
:1016300000287DD046E0FFF775FC0099401A02288B
:101640002ED868480068C005F5D5A168012910D0DA
:1016500004200529F16911D049084900F161F169B7
:101660008143F161A068002816D0FFF75BFC009071
:101670000EE0F06901210843F061F3E70143F161F5
:10168000F7E7FFF74FFC0099411A574881426FD89E
:10169000F0698007F5D50EE0FFF744FC009007E005
:1016A00066E0FFF73FFC0099411A4F4881425FD83E
:1016B000F0698007F5D4002F04D0E86B01210907F9
:1016C0008843E863E06900287FD0A9688906490F4C
:1016D000022953D001263606022828680DD0B043CF
:1016E0002860E86880088000E860E8683F490840B2
:1016F000E860FFF717FC04463CE0B0432860FFF7C2
:1017000011FC074604E0FFF70DFCC01B02282FD890
:1017100028688001F7D4616A206AA26A0843E16AF6
:10172000120211430843216B0843616B084300E038
:1017300049E0E9682E4A11400843E86028683043D0
:101740002860E868012109070843E860FFF7EAFB21
:10175000044604E0FFF7E6FB001B022808D82868CF
:101760008001F7D531E0FFF7DDFB001B022801D92E
:101770000320F8BD28688001F5D426E00128F8D0C0
:10178000E868226A8107890F91421CD17021626A40
:101790000140914217D17F21A26A09020140120241
:1017A000914210D11F214904E26A014091420AD1BD
:1017B00007214906226B0140914204D1400F616B21
:1017C0004007884201D00120F8BD0020F8BD00008C
:1017D000001002400024F4002C000020240000200F
:1017E000401002400070004088130000FFFFFEEE32
:1017F0008C80C111094910B5401E884201D90120D1
:1018000010BD074C60610321081F01F0AFF90020F3
:10181000A06107202061002010BD0000FFFFFF0035
:1018200000E000E010B5014680310A78012A15D0A9
:1018300001220A7024224A6002681368146864084E
:10184000640014600122520793430022426600683C
:101850000360202048600A70104610BD022010BDB1
:101860007047704770B504460546803420780128DB
:101870001AD0012020702420606028680668026861
:101880005208520002602868826807235B069A4368
:101890000A438260284600F0CFFD286806602020B9
:1018A00060600020207070BD022070BD70B50446DD
:1018B000054680342078012819D00120207024208A
:1018C0006060286806680268520852000260286852
:1018D0008268D200D2080A438260284600F0ACFD3C
:1018E00028680660202060600020207070BD022003
:1018F00070BD704770477047F8B503680446D969F2
:1019000018689A68914D0E462E4025468035002E67
:101910006CD08F4E8F4F1640074037437FD0CF0794
:1019200006D0C70504D501271F62EB683B43EB6077
:101930008B0708D5D30706D0276802233B62EB68E4
:1019400004273B43EB604B0708D5D30706D0276835
:1019500004233B62EB6802273B43EB600B0709D58E
:1019600020230340334305D0266808233362EE6802
:101970001E43EE600B0509D5430107D501232668F8
:10198000DB023362EB6820263343EB60EB68002B0D
:101990003AD089060AD520210840C9050A401043DB
:1019A00004D0216F002901D020468847E8682168CB
:1019B0008968490602D4282108422AD0204600F02E
:1019C0000DFE2068816849061FD5826840218A4340
:1019D0008260E06F002818D05F498163E06FFFF7F5
:1019E00097F9002810D0E06F816B0CE08E0616D5B9
:1019F000012720263F07064017403E430FD0216FA6
:101A00007FE00CE020468847F8BD2046FFF773FFD3
:101A1000F8BD2046FFF76FFF0020E860F8BDE66ED6
:101A2000012E59D1CE0657D5C60655D510221A62B9
:101A30002068816826464906403600292BDAE36F84
:101A4000196849680904090CE8D0B78B8F42E5D9B9
:101A5000F18319680968890618D40168130199434C
:101A600001602068816849084900816020688168B8
:101A70004023994381602020A8600020E066206810
:101A8000016891430160E06FFFF708F9B08BF18BBB
:101A9000401A81B21CE0B18BF38BC91AF38B89B267
:101AA000002BBBD00029B9D00368FF262136B343F1
:101AB000036020688368264EF6433340836020200D
:101AC000A8600020E06620672068036893430360F5
:101AD0002046FFF7C5FEF8BDCE0208D5560206D552
:101AE0000120000518622046FFF704FFF8BD0E062E
:101AF0000BD501278026FF0506403A40164304D047
:101B0000616F002900D07DE7F8BD4A060DD5420679
:101B10000BD51A68204640218A431A60202169604B
:101B20000021616700F0A4F9F8BD0A0205D5420062
:101B300003D52046FFF7DDFEF8BDC901FCD500281E
:101B4000FADA2046FFF78DFEF8BD00000F0800000E
:101B50000100001020010004C925000870B5040030
:101B600005D0254680356868002802D006E00120AF
:101B700070BD00202870204600F026F82420686000
:101B800020680168490849000160204600F042FDD4
:101B90000128EDD0A06A002802D0204600F07CFC8D
:101BA000206841680922D20291434160206881681F
:101BB0002A2291438160206801680122114301605B
:101BC000204600F0CFFC70BD30B587B0044614212C
:101BD0006846FEF7ECFA2368264C002126480222CC
:101BE000A3421FD1244B40331D68540325431D607D
:101BF0001B6823400593436B13434363406B02917F
:101C000010400590C0200391049100900192694614
:101C10001A48FFF7CDF8002211461B20FFF7EAF91A
:101C20001B2022E0164CA34221D1C46B01235B048C
:101C30001C43C463C46B1C400594446B01231C43C8
:101C40004463406B0291184005900C200090039172
:101C500005200493019269460007FFF7A9F80022C6
:101C600011461C20FFF7C6F91C20FFF7B7F907B093
:101C700030BD000000380140001002400004005058
:101C800000440040FFB5074604468037B86885B079
:101C90000E4620287CD1002E0CD00798002809D0B1
:101CA0000120A1680003814207D12069002804D1E6
:101CB000F00702D0012009B0F0BD3878012867D0C4
:101CC000012038700020F8602221B960E066FFF73B
:101CD00029F90490254640350798A8830798E8839A
:101CE0000121A0680903FF22884204D12369002B47
:101CF0000BD1284A09E0002817D001221207904290
:101D000018D12269002A13D03F222A8492B202926B
:101D1000884202D1206900280ED0019600260020BA
:101D200038700298C0B2039024E02369002BECD0F5
:101D30007F22EAE70022E8E700200190EFE7089819
:101D40000090002220212046049B00F06BFD00281B
:101D500001D00320AFE701980028206812D0416A23
:101D600003980140019801700198401C0190E88B94
:101D7000401EE883E88B0028E1D12020B8600020D5
:101D800099E705E0406A029908403080B61CEEE70A
:101D9000022090E7FF010000FFB5064604468036AA
:101DA000706883B00D46202860D1002D0CD00598B6
:101DB000002809D00120A1680003814207D12069D1
:101DC000002804D1E80702D0012007B0F0BD307828
:101DD00001284BD0012030700020F060212070607D
:101DE000FFF7A0F80190274640370598B88205987C
:101DF000F8820120A1680003814202D120690028F5
:101E000004D0029500250020307015E000200290DB
:101E1000F9E700228021204600F004FD002818D1B7
:101E20000298002817D02168007888620298401C28
:101E30000290F88A401EF882F88A019B00280698D2
:101E40000090E6D100224021204600F0EBFC002863
:101E500008D00320B9E728882168C005C00D886232
:101E6000AD1CE6E7202070600020AEE70220ACE762
:101E70007047FEE7FFB5074687B01C46164610467A
:101E8000FEF7B4F903903846FEF7B0F902900898CF
:101E9000FEF7ACF9019002990398012540180199C9
:101EA00080224018102121701030C117490E0918E6
:101EB000CB09DB01C01AC3B2C811002800DD1343EF
:101EC00063556D1C0028F0DC0020605504216D1C5A
:101ED00061554D226D1C625551226D1C6255542274
:101EE0006D1C62556D1C62556D1C6155C2216D1CC7
:101EF00061556D1C60553C206D1C60556846407BEB
:101F00006D1C60556846007B6D1C60556D1C60192A
:101F10003146039AFEF732F90398029928180029EE
:101F20000EDD6946497A21546946401C097A2154DC
:101F3000451C60193946029AFEF720F902982818C4
:101F4000019900290EDD6946497921546946401CF2
:101F500009792154451C6019019A0899FEF70EF978
:101F6000019828180BB0F0BDFEB51D460E46074679
:101F7000FEF73CF900903046FEF738F90190314603
:101F80001DA000F0B1FC01990098012440183021F7
:101F900080222970401DC117490E0918CB09DB01A9
:101FA000C01AC3B2C811002800DD13432B55641CAE
:101FB0000028F0DC68464078285568460078641CA4
:101FC0002855641C28193946009AFEF7D7F800985E
:101FD000314624180320285568464079641C28554A
:101FE00068460079641C2855641C2819019AFEF77C
:101FF000C5F801982018FEBD0D0A637374782E741D
:10200000616F62616F2E636F6D3A25730D0A000078
:10201000FFB581B01D4616460F460198FEF7E6F85B
:102020000090002E01D0012000E00020009940180F
:10203000001D002E01D0822100E0A2210124297080
:102040008022C117490E0918CB09DB01C01AC3B29F
:10205000C811002800DD13432B55641C0028F0DC58
:10206000002028550120641C285568464078641CCF
:10207000285568460078641C2855641C2819009A65
:102080000199FEF77BF800982018002E01D02F54FC
:10209000401C05B0F0BD0000F0B587B014216846C3
:1020A000FEF785F82848426B02210A434263426BDF
:1020B0000A400592426B04210A434263426B0A4084
:1020C0000592416B012421434163406B1F4F204027
:1020D00003210590224689033846FEF71CFF1C4E5B
:1020E0000520012231460007FEF715FFA003002559
:1020F000009001946946039502943846FEF758FE15
:10210000E003694631C1694638460395FEF750FE43
:102110001020694631C10520694600070395FEF786
:1021200047FE052000946946000701950294FEF7DA
:102130003FFE05200295694600070096039501942D
:10214000FEF736FE07B0F0BD001002400008005058
:10215000E218000010B5184816490160E121490253
:10216000416000218160C16001618161C1610162E2
:102170000C22416242618162FFF7F0FC002801D02D
:10218000FEF78AFD00210C48FFF790FB002801D0E4
:10219000FEF782FD00210848FFF764FB002801D00C
:1021A000FEF77AFD0448FFF73DFB002801D0FEF75B
:1021B00073FD10BD003801401804002010B50D4813
:1021C0000B4901604B21C901416000218160C16060
:1021D00001618161C16101620C22416242618162DF
:1021E000FFF7BCFC002801D0FEF756FD10BD000033
:1021F00000440040A8040020FEE770B500242046FB
:10220000B030C0B2002100F096F80021022000F0AA
:1022100092F80021102000F08EF800250121002006
:1022200000F089F86D1CEDB2802DF7D3641CE4B288
:10223000082CE4D370BD10B50446B031C8B20021FB
:1022400000F079F820090021103000F074F8200720
:10225000000F01210843002100F06DF810BD0000BF
:10226000F8B515460E460746FFF7E5FF0E49002470
:10227000A8014518285D012100F05DF8641CE4B256
:10228000102CF7D3761CF1B23846FFF7D4FF0024A8
:10229000281920300078012100F04DF8641CE4B2C8
:1022A000102CF5D3F8BD000098400008F7B5203A8F
:1022B000009800240D46D6B27F2803D900208D1C3B
:1022C000EDB200902946FFF7B6FF37010D4E3819E1
:1022D000305C012100F02FF8641CE4B2082CF6D326
:1022E0006D1CE9B20098FFF7A6FF00243819801989
:1022F000007A012100F01FF8641CE4B2082CF5D329
:10230000FEBD0000A83A0008F8B517460E46044680
:1023100000250CE031462046FFF7C8FF0834E4B240
:10232000782C02D90024B61CF6B26D1CEDB27A5D91
:10233000002AEFD1F8BDF8B5012705263F0336077F
:102340000546002901D0012200E00022394630462E
:10235000FEF7E1FD0024002220213046FEF7DBFDE0
:10236000280601D5012200E0002280213046FEF738
:10237000D2FD012220213046FEF7CDFD6806641C07
:10238000050EE4B2082CE6D3012239463046FEF7AA
:10239000C2FDF8BD7047704710B5FEF7C9FD10BD0E
:1023A00030B59DB038216846FDF701FF002518952E
:1023B00019951A9528210EA81B95FDF7F8FE012006
:1023C0004002FEF71BFE0224E0010390009440202F
:1023D000059008200A9080030B90079400020C904F
:1023E0000894000104950D9009956846FFF70AF8D6
:1023F000002801D072B6FEE7072018A931C10221DA
:1024000018A81B95FEF7F8FE002801D072B6FEE76B
:1024100001200E900F950EA8FEF716FE002801D0A1
:1024200072B6FEE71DB030BD01200249C0068860CB
:102430007047000000ED00E0F0B513A106C985B0BB
:102440000192009112A206CA039202910446416EC3
:102450004034002915D000688168806809014D0F5B
:10246000400F02AE315C6F46385CC000FDF740FEA5
:102470006085785D715DC000FDF73AFE208505B08E
:10248000F0BD01206085F9E70101010307010000AB
:10249000080402040801010110B5018DC90707D025
:1024A00001684A6801235B049A43C36A1A434A607D
:1024B000018D890707D501684A6801231B049A43E7
:1024C000036B1A434A60018D490707D501684A68C2
:1024D00001239B049A43436B1A434A60018D090709
:1024E00007D501684A680123DB039A43836B1A43CB
:1024F0004A60018DC90607D50268916801231B0354
:102500009943C36B19439160018D890607D5016812
:102510008A6801235B039A43036C1A438A60018D26
:10252000490612D503685A6801210905446C8A439B
:1025300022435A60426C8A4207D1026851680323E1
:102540005B059943836C19435160018D090607D5DA
:1025500001684A680123DB04C06C9A4302434A6065
:1025600010BD0000FEB50546002680350446EE602D
:10257000FEF7D8FC019020680068124F000709D5CB
:1025800001210097002249052046019B00F04AF9ED
:1025900000280DD12068006840070BD50121009765
:1025A000002289052046019B00F03CF9002801D05B
:1025B0000320FEBD20206860A860E6662E70002023
:1025C000FEBD0000FFFFFF0110B5806A002201463A
:1025D0004031CA83CA82FFF78EF910BD01680A68CC
:1025E000FF2321339A430A6001688A68084B1A4026
:1025F0008A60C16E012904D101680A6810239A43D8
:102600000A60202288210A500021C16601677047B4
:10261000FEFFFFEFF8B50446036880682169E569AD
:1026200008436169002629430843616E734A0143E8
:102630001868734D284008431860216848680323D0
:102640001B039843E368184348602168A0699142DE
:1026500001D0236A18438B686A4D2B4003438B607B
:102660002068C16A636A090909011943C1626649A0
:10267000236866488B420AD140698007800F09D0E1
:1026800001282CD0022828D0032816D113E0604955
:102690008B4201D1002111E093420ED14169032008
:1026A000800201400AD001208002091A17D0091ABD
:1026B00013D0814201D1082100E010210120554DA5
:1026C000554FC00393423BD100290AD0022911D0B3
:1026D000042909D008297DD10BE00221EEE704216D
:1026E000ECE7FEF735FE01E0FEF746FE050001D1FE
:1026F0007AE00546606A4000395A28460091FDF7A5
:10270000F7FC676879007918814269D839038142FA
:1027100066D3002328461946009AFDF7FFFC020EF7
:1027200009020302780811431818002251413A4661
:102730000023FDF7F3FC03210902411A374A4DE05B
:10274000E269824228D1002906D0022907D0042953
:1027500007D0082944D108E0FEF7FAFD03E0284637
:1027600003E0FEF709FE00283ED0616A4900795A6D
:10277000FDF7BEFC616840004A088018FDF7B8FC10
:1027800080B20146264A1039914229D8511C014095
:102790000007400F084325E0002906D0022907D092
:1027A000042907D008291BD108E0FEF7D1FD03E07A
:1027B000284603E0FEF7E0FD002815D0616A4900D5
:1027C000795AFDF795FC61684A088018FDF790FC7E
:1027D00080B200E004E00146114A1039914201D96B
:1027E000012601E02168C860204601214030418572
:1027F00001850020206760673046F8BD00800040FA
:10280000F369FFCFFFF4FF11003801404010024090
:10281000004400400024F40058440008FFFC0F006E
:10282000EFFF0000FFB581B005460F460446803536
:102830000A9E38E0701C36D0FEF774FB0499401AEB
:10284000B04221D8002E1FD02068016849072AD540
:10285000C069C043000526D401202168C002086277
:1028600020680168FF22A1329143016020688168DD
:1028700049084900816020206860A860E860002065
:102880002870032005B0F0BD20680168FF22A13246
:1028900091430160206881684908490081602020D7
:1028A0006860A860EBE72068C1693846884305D0B6
:1028B000002103988142BDD00020E3E70121F8E721
:1028C00010B5034800F050F80148FFF715F810BDA7
:1028D0001804002010B5034800F046F80148FFF73F
:1028E0000BF810BDA80400200FB410B503AA0D48C2
:1028F000029900F011F90B48FDF778FC0A49CA6902
:102900005206FCD50022074B05E09C5C8C62CC692A
:102910006406FCD5521C8242F7D310BC08BC04B03C
:1029200018470000180300200044004010B50D496E
:102930000A6813681020034313600B681C68202288
:1029400014431C6009680862064990310B681C68D2
:1029500004431C600B681C6814431C60096808620F
:1029600010BD000018040020F8B5002569460D7060
:1029700000682B497D23DB0001262A4C884225D1A3
:10298000294F3868C069C04380060FD401226946C8
:102990003846FFF777F968460178244A20781154C1
:1029A000401C2070A5803968202008623868C16901
:1029B000C943C90609D4A178002902D0A580A57011
:1029C00000E0A680257010210162F8BD18498842F8
:1029D000FBD1154F90373868C069C043800612D4C8
:1029E000012269463846FFF74DF968460178114AD9
:1029F00020781154401C20706078401C6070E58085
:102A00003968202008623868C169C943C906DCD426
:102A1000E178002902D0E580E570D3E7E680D1E7D0
:102A20000038014016000020180400201801002082
:102A3000004400401802002070B50546FF200C46F7
:102A4000F530FEF7A3F921462846FEF789F8040081
:102A500004D0FD2C15D0FF2C11D106E00CA20221D0
:102A60000020FFF751FC0EA205E009A20221002080
:102A7000FFF74AFC0EA202210020FFF745FC20468A
:102A800070BD03A202210020FFF73EFC0CA2F2E77A
:102A90002020202020202020202020202020200056
:102AA000574946492053455453534944204F4B00FE
:102AB0005749464920434F4E4E454354204E4F0000
:102AC00057494649204E6574776F726B204E4F0010
:102AD0000FB410B503A9044B044A029800F032F970
:102AE00010BC08BC04B01847713500083400002041
:102AF0000FB410B504A9074B02AA039800F022F9FD
:102B0000044602A9002000F0B9FC204610BC08BC15
:102B100004B018477D34000837B514460846064B04
:102B20006A46214600F00EF904466946002000F08E
:102B3000A5FC20463EBD00007D3400082021020C8B
:102B400001D010211046020A01D0104608390209AE
:102B500001D01046091F820801D01046891E420884
:102B600001D0881E7047081A704700008307FF22B3
:102B7000DB0E9A408907090E9940002808DB83087C
:102B800009489B001B181868904308431860704759
:102B90000007000F0838830804489B001B18D869F9
:102BA00090430843D861704700E400E000ED00E086
:102BB00002E008C8121F08C1002AFAD17047704706
:102BC000002001E001C1121F002AFBD17047000064
:102BD000F0B51FB486B00998089A030D002102438E
:102BE00014D05148514A181850430514119801281F
:102BF00010981AD0281A401C00264D4F4D490096B7
:102C000001910490002812DA444211E01198012445
:102C100049A3012801D11098C1430698119A8460F4
:102C20000360C26041600BB0F0BD4042E4E704467F
:102C3000210500203F4A001C51410391029012E0FF
:102C4000E00707D032463B4601990098FDF7CEFBDE
:102C50000191009032463B4610461946FDF7C6FBEF
:102C600006460F466410002CEAD10498039B002806
:102C7000029A0999089806DAFDF7B8FB019B009AB9
:102C8000FDF7B4FB05E0FDF719FC019B009AFDF789
:102C900015FC04460E460022284BFDF7A7FC03D87E
:102CA0000020C043014607E00022254B2046314664
:102CB000FDF7EAFAFDF77AFC102409E0002C0ADBA4
:102CC0000A220023FDF72AFA079B30321A55641EA8
:102CD00002460A43F2D11122641C079B121B1C19E5
:102CE000119B012B03D0012308430ED10AE00843B6
:102CF00004D0112010900020119077E71098151A39
:102D00006D1E0BE01098824202DD00236D1C03E073
:102D1000824201DA00236D1E002BEED00698119935
:102D20008260C16030C07EE701FCFFFF104D0000F3
:102D3000000014400000F03F300000000000F043AD
:102D40000000E03FFFB597B00646002518E22528B1
:102D500077D100242746FD49049400E00443761C03
:102D600032780120203A90400842F7D130782A2862
:102D70000ED00222307801463039092916D804993C
:102D80000A235943303940181443761C0490F1E764
:102D9000189802C804911890002904DA0120400311
:102DA00004434842049002200443761C30782E28C5
:102DB00014D1042004437078761C2A2809D118986D
:102DC000761C80C8189009E00A214F43303FC7198C
:102DD000761C3078014630390929F5D930786C28CD
:102DE00010D006DC4C281AD068280ED06A2817D1DB
:102DF00004E0742813D07A2812D110E00120400595
:102E000004430CE00121090501E0032109050C43FD
:102E10007178814203D1012000052418761C761CAC
:102E20003078119066280BD013DC58287DD009DC4F
:102E300000287BD04528F6D04628F4D047281AD160
:102E4000A5E118E0632835D0642870D0652812D138
:102E50009DE170286CD008DC6728F1D069287BD010
:102E60006E280DD06F2806D1BAE073282ED07528B1
:102E700071D0782859D01A9A199990476D1C7EE123
:102E80006002400F022809D003280DD004281898AA
:102E900001680DD00D60001D189070E11898EA17B8
:102EA00001680D604A60F6E7189801680D80F2E746
:102EB0000D70F0E718986A4601781172001D18909D
:102EC0000020507202A80090012005E0189802C866
:102ED000189000200091C04361070DD5002101E04A
:102EE0000199491C0191B94212DA8142F8DB009A3A
:102EF000515C0029F4D10BE0002101E00199491C4B
:102F000001918142FADB019A0099895C0029F5D18F
:102F1000019904981A9B471A21463846199A00F0DD
:102F200097FA0199401945180BE04FE02CE113E0A6
:102F30004EE0009800990078491C00911A9A19995E
:102F400090470198401E0190401CF2D1214638461E
:102F50001A9B199A10E137E00A2000210090019194
:102F60006002410F022907D0189A01CA1892C217AD
:102F70009446032908D00AE01898C01DC108C9006A
:102F800005C91891944607E000B2C2179446042977
:102F900002D140B2C1178C4600226146944506DA40
:102FA0000A460021404291418C462D2102E0210534
:102FB00004D52B216A461173012103E0E10701D0FA
:102FC0002021F7E7029155E00A200AE0102008E0EE
:102FD000102000900021042004430191082703E001
:102FE00008200021019100906002410F022907D0C2
:102FF000189A01CA189200229446032908D008E0C2
:103000001898C01DC108C90005C91891944603E06D
:1030100080B2042900D1C0B200210291210729D534
:103020001199702906D0009A1021019B4A401A4339
:1030300005D00EE040216A461173012108E0614687
:10304000014306D030216A46117311995173022150
:103050000291009A0821019B4A401A430AD1614615
:10306000014301D1610705D530216A461173012161
:103070007F1E02911199582904D035A10E910DA9F6
:103080000D910DE037A1F9E76146019B009AFDF72C
:1030900045F80E9B8C469B5C0D9A521E0D92137048
:1030A00061460143F0D10D9805A9081A203001901E
:1030B000600703D501200004844300E00127019844
:1030C000874201DD381A00E0002001990090411884
:1030D000029809180498401A0490E00306D4214687
:1030E0001A9B199A049800F0B3F94519002706E0D5
:1030F00003A81A9AC05D199990476D1C7F1C02980D
:103100008742F5DBE0030CD521461A9B199A0498F7
:1031100000F09EF9451904E01A9A30201999904759
:103120006D1C0099481E00900029F5DC08E00D9800
:103130000D990078491C0D911A9A199990476D1CA8
:103140000199481E01900029F1DC63E10928010082
:10315000303132333435363738396162636465660D
:1031600000000000303132333435363738394142CF
:10317000434445460000000000F05AF94519761C0A
:103180003078002800D0E2E528461BB0F0BD60078B
:1031900000D406271898C01DC108C90048680A68ED
:1031A0000831C30FDB071891190001D09CA108E07A
:1031B000210501D59BA104E0E10701D09AA100E01F
:1031C0009AA1430011985B08109165280CD006DC89
:1031D000452809D046281DD0472841D141E066281E
:1031E00018D067283CD13CE00021112F01DB1120D1
:1031F00000E0781C0191009008A911A8FFF7E8FCF5
:10320000139905910021119A15927F1C129801972C
:10321000009150E00120C00703900120019008A90F
:10322000009711A8FFF7D4FC139A14990592002275
:10323000119B009212981593059A0192002901D0D2
:10324000104602E0791C40180190381A01D5019807
:1032500004E04042401E0090781C0190C01B029088
:1032600043E0012F00DA01270021112F01DD112099
:1032700000E038460191009008A911A8FFF7A8FCCA
:1032800013990591119A00211298159200910197B6
:1032900021070CD40599B94201DB019900E00191A5
:1032A000012904DD159A491E515C302906D0B84227
:1032B00001DA011D05DA0121029115E00199491E8B
:1032C000EDE7002805DC0099411800910199091AE1
:1032D00003E0019A411C914200DD01910099401ADE
:1032E000401C02900120C0070390200706D40299D9
:1032F0000198814202DB0020C04302900020694611
:10330000C87707AF012103980337C907884224D043
:10331000022011902B201290039800280CDA4042D2
:1033200003902D20129007E00A210398FCF7E0FE9D
:1033300030317F1E039039701199481E1190002979
:10334000F2DC03980028EFD1791E129808703078CB
:10335000202108404530BF1E387006A8C01BC01D84
:10336000039010980078002800D00120019941189E
:103370000298C0170918039809180498401A401EAB
:103380000490E00306D421461A9B199A049800F091
:103390005FF8451910980078002803D01A9A1999F7
:1033A00090476D1CE00324D521461A9B199A049876
:1033B00000F04EF845191CE00098002807DB009942
:1033C0000598884203DD1598405C199901E0199928
:1033D00030201A9A904700986D1C401C009002986B
:1033E000401E0290002804D11A9A2E201999904765
:1033F0006D1C0199481E01900029DDDC05E038783C
:103400001A9A7F1C199990476D1C0399481E0390C6
:103410000029F4DC21461A9B199A0498ACE60000B6
:103420002D0000002B000000200000000000000024
:10343000F8B5044600251E461746880404D405E066
:1034400039462020B0476D1C641EF9D52846F8BDCA
:10345000FFB50446002581B01E46C80301D53027BC
:1034600000E02027880404D505E038460399B047DA
:103470006D1C641EF9D5284605B0F0BD0A68531CC2
:103480000B60107070470000F8B505252D0701226C
:1034900002212846FDF73FFD002240212846FDF786
:1034A0003AFD002210212846FDF735FDFF242D347A
:1034B0002046FDF76BFC2046FDF768FC0122102139
:1034C0002846FDF728FD01251A4EED030022294666
:1034D0003046FDF720FD6F10002239463046FDF7DB
:1034E0001AFD2046FDF752FC012229463046FDF721
:1034F00012FD012239463046FDF70DFD2046FDF74D
:1035000045FC002229463046FDF705FD00223946DC
:103510003046FDF700FD2046FDF738FC0122294624
:103520003046FDF7F8FC012239463046FDF7F3FC42
:10353000F8BD00000008005070B50B4C0022657803
:103540000A4B0A701E78C12E04D007E09E5C865498
:10355000521CD2B2AA42F9D360780870FF2101311F
:103560000248FCF724FE70BD16000020180200205F
:1035700013B5044B012269460348FEF70DFC009881
:103580001CBD0000FFFF000018040020FDF7D8FC60
:10359000FEF706FFFEF780FDFEF7DCFDFEF70EFEF0
:1035A000FFF7C4F9FDF7BAF8FEF727FE9FA2002146
:1035B0001020FEF7A9FE072200213020FEF750FE62
:1035C000082200214020FEF74BFE09220021502056
:1035D000FEF746FE97A200216420FEF795FEFFF756
:1035E00053FF0526360702213046FDF78FFC0128E0
:1035F00003D0022190A2002034E003219248FDF77D
:1036000059F9FF202D30FDF7C1FB8F49891E481D58
:10361000FFF792FF18218D48FCF7C9FD8CA202210B
:103620000020FEF771FE884D0324ED1C2A5D8AA15F
:103630008648FFF75DFA2001001FC0B2834A0221CD
:10364000FEF762FE641C052CF0DB85A202215220ED
:10365000FEF75AFE2A7A80A17C48FFF749FA7B4A96
:1036600002216820FEF750FE002202213046FDF7BD
:1036700052FC7D25ED002846FDF788FBFF21013136
:103680007848FCF794FD78480026068077A17AA058
:10369000FFF7D2F90446C820FDF778FB002CF5D1DE
:1036A000794F01210022C9033846FDF734FC664CEE
:1036B000A41E06E075A177A0FDF71CF92846FDF7CA
:1036C00065FB60780028F5D1012100228903384686
:1036D000FDF721FC73A202210020FEF715FE75A262
:1036E00002210020FEF710FE0127677075A278A165
:1036F00079A000F05DF9607800287DD078A0FFF710
:10370000F3F860780028F1D167707AA000F08EF9A4
:103710006078002871D078A0FFF7E6F8607800287C
:10372000F3D160A20221FEF7EFFD79A20221002071
:10373000FEF7EAFD7AA0FFF7D7F8814F7D20C000A1
:10374000FDF724FB57A202210020FEF7DDFD7DA23C
:1037500002210020FEF7D8FD3B48801E407800285B
:10376000ECD138880128E9D17A48FCF73FFD0B28D5
:10377000E4D179A17748FCF741FD77A10020FCF75F
:103780003DFD054674A10020FCF738FD04460146C6
:103790002A4658A0FDF744F970A204210020FEF744
:1037A000B3FD6EA206210020FEF7AEFD0122062128
:1037B0000020FEF755FD022206211220FEF750FDE3
:1037C00024A206212420FEF79FFD2A46062136204A
:1037D000FEF79AFD002204211046FEF741FD022269
:1037E00004211220FEF73CFD1AA204212420FEF73A
:1037F0008BFD2246042101E014E015E03620FEF79F
:1038000083FDFF2101315348FCF7D1FC3E8025A206
:1038100002210020FEF778FD55A202210020FEF7CC
:1038200073FD8BE756A06AE75AA075E74C6F5261AB
:10383000000000005B425D004D312C204D30203AED
:10384000202030202C203000060000200001002025
:10385000416464723A0000002530325800000000D4
:1038600043683A00180100201A0000203132333436
:1038700035363738393000004855415745496C7561
:10388000796F7571690000000008005036303032E1
:10389000000000003138332E3233302E34302E33D6
:1038A000390000002020202020202020202020205F
:1038B00020202000434F4E4E45205345525645523E
:1038C000204F4B003130343835313530363100003F
:1038D000435354580000000035373331363200006E
:1038E000456E746572204D515454204572726F724A
:1038F000210D0A002464700053756273637269704D
:1039000074696F6E206661696C6564210D0A000040
:103910005245474953544552204F4E454E45540059
:103920002A2A2A434F4E4E4543542053455256456A
:103930005220535543434545442A2A2A0D0A000084
:103940001C00002053656E64204F4E454E455420A8
:10395000202E2E00180200202C0000002020202005
:1039600020202020202020202020202000000000D7
:103970004D515454204F4E454E45545B4F4B5D00C6
:10398000456E746572204D515454204F4B210D0AE1
:1039900000000000537562736372697074696F6E22
:1039A00020737563636565646564210D0A0000001A
:1039B000F0B5194DC1B000232B6002246B46FEF711
:1039C00059FA82B22860642369461448FEF7E4F984
:1039D000134D144E15E01D2728783178884208D100
:1039E00068787178884204D10F490020087041B08E
:1039F000F0BD6420FDF7CAF938467F1EFFB20028EB
:103A0000EAD12046641EE4B20028E4D10648012130
:103A100001700846EBE700000000002018040020B9
:103A200018010020D044000805000020F0B5C1B006
:103A30000027184D02246B46012239462F60FEF7FD
:103A4000E7FA82B22860642369461348FEF7A4F9B6
:103A5000124D11E01D26124829780278914203D1B7
:103A60006978407881420ED06420FDF78FF93046A6
:103A7000761EF6B20028EED12046641EE4B200287D
:103A8000E8D1002C04D007480770002041B0F0BDF9
:103A90000120FBE70000002018040020180100208E
:103AA000D4440008050000200000000000000000D1
:103AB0000000000000000000000000F8000000000E
:103AC000000000333000000000100C06100C06004F
:103AD000000000000000000040C07840C0784000B6
:103AE000043F04043F040400007088FC0830000018
:103AF000001820FF211E0000F008F000E018000070
:103B000000211C031E211E0000F008887000000028
:103B10001E2123241927211010160E00000000007A
:103B20000000000000000000000000E01804020097
:103B3000000000071820400000020418E000000008
:103B40000040201807000000404080F08040400006
:103B50000202010F01020200000000F0000000005C
:103B60000101011F01010100000000000000000030
:103B700080B07000000000000000000000000000A5
:103B8000000101010101010100000000000000002E
:103B900000303000000000000000000080601804C9
:103BA000006018060100000000E010080810E000A6
:103BB000000F102020100F00001010F8000000006F
:103BC0000020203F202000000070080808887000B6
:103BD0000030282422213000003008888848300036
:103BE0000018202020110E000000C02010F8000056
:103BF00000070424243F240000F8088888080800EF
:103C00000019212020110E0000E010888818000003
:103C1000000F112020110E0000380808C8380800D5
:103C20000000003F00000000007088080888700055
:103C3000001C222121221C0000E010080810E000D6
:103C40000000312222110F00000000C0C00000005F
:103C50000000003030000000000000800000000084
:103C6000000080600000000000008040201008007C
:103C70000001020408102000404040404040400045
:103C80000404040404040400000810204080000020
:103C90000020100804020100007048080808F00025
:103CA0000000003036010000C030C828E810E000F5
:103CB0000718272423140B000000C038E000000080
:103CC000203C23020227382008F8888888700000EA
:103CD000203F202020110E00C030080808083800BE
:103CE000071820202010080008F808080810E00035
:103CF000203F202020100F0008F88888E8081000D6
:103D0000203F20202320180008F88888E8081000A9
:103D1000203F200003000000C030080808380000E1
:103D200007182020221E020008F808000008F808E2
:103D3000203F210101213F20000808F80808000069
:103D40000020203F2020000000000808F80808009C
:103D5000C08080807F00000008F888C02818080014
:103D6000203F20012638200008F80800000000004D
:103D7000203F20202020300008F8F800F8F8080044
:103D8000203F003F003F200008F830C00008F8083E
:103D9000203F200007183F00E01008080810E0004E
:103DA0000F10202020100F0008F808080808F00065
:103DB000203F210101010000E01008080810E00088
:103DC0000F18242438504F0008F88888888870001D
:103DD000203F2000030C30200070880808083800BD
:103DE0000038202121221C00180808F808081800B3
:103DF0000000203F2000000008F808000008F80834
:103E0000001F202020201F000878880000C83808E4
:103E1000000007380E010000F80800F80008F8005C
:103E2000033C0700073C03000818688080681808F6
:103E300020302C03032C30200838C800C838080074
:103E40000000203F2000000010080808C8380800C3
:103E50002038262120201800000000FE0202020067
:103E60000000007F40404000000C30C00000000017
:103E7000000000010638C00000020202FE0000003F
:103E8000004040407F0000000000040202020400E5
:103E90000000000000000000000000000000000022
:103EA000808080808080808000020204000000000A
:103EB0000000000000000000000080808080000002
:103EC0000019242222223F2008F8008080000000F0
:103ED000003F112020110E000000008080800000B3
:103EE000000E112020201100000000808088F800C2
:103EF000000E112020103F200000808080800000F4
:103F0000001F222222221300008080F08888881857
:103F10000020203F20200000000080808080800062
:103F2000006B94949493600008F8008080800000F7
:103F3000203F210000203F200080989800000000D2
:103F40000020203F20200000000000809898000002
:103F500000C08080807F000008F800008080800022
:103F6000203F24022D302000000808F80000000047
:103F70000020203F20200000808080808080800002
:103F8000203F20003F20003F808000808080000094
:103F9000203F210000203F20000080808080000022
:103FA000001F202020201F00808000808000000053
:103FB00080FFA12020110E00000000808080800082
:103FC000000E112020A0FF80808080008080800073
:103FD00020203F21200001000000808080808000A0
:103FE0000033242424241900008080E08080000015
:103FF0000000001F20200000808000000080800062
:10400000001F202020103F208080800000808080C2
:1040100000010E3008060100808000800080808052
:104020000F300C030C300F00008080008080800077
:104030000020312E0E3120008080800000808080A2
:1040400080818E7018060100008080808080800052
:104050000021302C2221300000000000807C020270
:1040600000000000003F404000000000FF00000092
:1040700000000000FF0000000002027C8000000041
:104080000040403F0000000000060101020204045D
:1040900000000000000000001060028C0000FE9292
:1040A00092929292FE0000000000000000000000CA
:1040B000000000000000000004047E01407E424237
:1040C0007E427E42427E4000000000000000000070
:1040D00000000000000000001060028C00FE9292C0
:1040E00092929292FE00000000000000000000008A
:1040F000000000000000000004047E014448507FDE
:1041000040407F5048444000000000000000000094
:1041100000000000000000000000FC242424FC2516
:104120002624FC24242404000000000000000000D9
:10413000000000000000000040308F80844C5525B6
:104140002525554C80808000000000000000000004
:1041500000000000000000004020D04C4344C81084
:104160002000F80000FF0000000000000000000038
:10417000000000000000000000003F4044484740AD
:1041800070000F40807F0000000000000000000071
:1041900000000000000000000000FE92929292FEDB
:1041A00092929292FE0000000000000000000000C9
:1041B0000000000000000000403801003C40404288
:1041C0004C40407005083000000000000000000076
:1041D00000000000000000004042CC0000E2222A63
:1041E0002AF22A2622E00000000000000000000061
:1041F000000000000000000080403F4080FF8989EF
:1042000089BF89A9C9BF800000000000000000002C
:104210000000000000000000008060F80700042497
:1042200024252624242404000000000000000000AF
:104230000000000000000000010000FF000000F985
:104240004949494949F90000000000000000000008
:10425000000000000000000080828282FE828282D4
:104260008282FE8282828000000000000000000046
:104270000000000000000000008040300F0000003F
:104280000000FF000000000000000000000000002F
:1042900000000000000000000000181610D0B897C1
:1042A0009090909294100000000000000000000028
:1042B00000000000000000000020108C83804146B8
:1042C0002810284443808000000000000000000007
:1042D00000000000000000001010D0FF901000FC53
:1042E00024E4242223E2000000000000000000007B
:1042F0000000000000000000040300FF0083601FB6
:1043000080412618264180000000000000000000C7
:104310000000000000000000008060F807404848EE
:10432000E85F4848484040000000000000000000EE
:104330000000000000000000010000FF0000020B70
:104340001222D20A06000000000000000000000057
:1043500000000000000000000000FC04D45454548D
:10436000D4047F84C5360400000000000000000073
:104370000000000000000000886601006382829255
:10438000AB8482C10224CF000000000000000000C6
:10439000000000000000000080809E9292929EE04B
:1043A000809EB2D2929E80000000000000000000BB
:1043B00000000000000000000808F4949292F10050
:1043C00001F2929494F80800000000000000000040
:1043D000000000000000000090523410FF10345222
:1043E00080708F0808F8080000000000000000003E
:1043F0000000000000000000829A566322528E00E6
:104400008040330C334080000000000000000000BA
:1044100000000000000000001010FF109000FE924D
:104420009292F292929E8000000000000000000034
:10443000000000000000000042827F0180601F0039
:10444000FC44474444FC0000000000000000000061
:10445000000000000000000001000200040006004F
:1044600008000A000C00100020004000800000013D
:10447000000000000000000000000000000000003C
:10448000000000000000000000000000000000002C
:104490000100000002000000030000000400000012
:1044A00006000000070000000800000009000000EE
:1044B00000000000000000000000000000000000FC
:1044C00001000000020000000300000004000000E2
:1044D0002002000090030000F844000800000020C3
:1044E00038000000B02B00083045000838000020DC
:1044F00000090000C02B0008000000000001C100FE
:1045000009C10009FFFFFFFFFFFFFFFFFF000000E1
:104510000101000000000000010000000400000094
:10452000000000000024F400000000000000000073
:04000005080000C12E
:00000001FF
